:10000000D0C10000FFC10000FDC10000FBC1000025
:10001000F9C10000F7C10000F5C10000F3C1000004
:10002000F1C10000EFC10000EDC10000EBC1000014
:10003000E9C10000E7C10000E5C10000E3C1000024
:10004000E1C10000DFC10000DDC10000DBC1000034
:100050000C94B016D7C10000D5C100000C946616F0
:10006000D1C100000C943C160C941216CBC10000B8
:10007000C9C10000C7C10000C5C10000C3C1000064
:10008000C1C10000BFC10000BDC10000BBC1000074
:100090000C94E8150C94BE15B5C10000B3C1000066
:1000A000B1C10000AFC10000ADC10000ABC1000094
:1000B000A9C10000A7C10000A5C10000A3C10000A4
:1000C000A1C100009FC100009DC100009BC10000B4
:1000D00099C1000097C100000C9494150C946A1506
:1000E00091C10000036EDB363D9A9999993DABAA08
:1000F000AA2A3E000000803F072C7AA5BA6CC59062
:10010000DA3B9365FC8BBC53F810FD3C5692834D53
:10011000BD879D3AB63DCBC9BF5BBE73DA0FC93F01
:1001200005A84CCDB2D44EB93836A9020C50B991BD
:100130008688083CA6AAAA2ABE000000803F4E413D
:100140004E494E495459494E46CDCCCC3D0AD72351
:100150003C17B7D13877CC2B329595E6241FB14F99
:100160000A000020410000C84200401C4620BCBEDE
:100170004CCA1B0E5AAEC59D7400407A10F35A004B
:10018000A0724E18090010A5D4E80000E8764817C0
:100190000000E40B54020000CA9A3B000000E1F5A5
:1001A00005000080969800000040420F000000A06B
:1001B0008601000000102700000000E80300000096
:1001C000006400000000000A0000000000010000C0
:1001D0000000002C76D888DC674F0823DFC1DFAE33
:1001E00059E1B1B796E5E3E453C63AE651997696FC
:1001F000E8E6C28426EB898C9B62ED407C6FFCEFC5
:10020000BC9C9F40F2BAA56FA5F490055A2AF75CF2
:10021000936B6CF9676DC11BFCE0E40D47FEF520A4
:10022000E6B500D0ED902E0300943577050080846C
:100230001E080000204E0A000000C80C3333333380
:100240000F986E12831141EF8D2114893BE65516EC
:10025000CFFEE6DB18D1844B381BF77C1D901DA424
:10026000BBE424203284725E228100C9F124ECA117
:10027000E53D276364696E6F70737578585B0000A5
:10028000002100240027002A002D00300033000147
:10029000010000040107010A0100002200250028D6
:1002A000002B002E0031003400020100000501087F
:1002B000010B01000020002300260029002C002F44
:1002C00000320000010000030106010901050505D7
:1002D00005070508080808020202020A0A080804BD
:1002E00004040401010101010101010303030303EB
:1002F000030303040707070C0C0C0C0C0C0C0C027A
:1003000002020206060606060606060B0B0B0B0B80
:100310000B0B0B0102102020080810204010204079
:1003200080020102010804020101020408102040B9
:1003300080804020100804020180040201804020D7
:100340001008040201080402010102040810204000
:1003500080010204081020408000000A0B02090CF2
:100360000D0E08070304010000000000000000005B
:10037000000000000000000000000000000000007D
:10038000000000000012111000000000000000003A
:10039000000000000000000000000000000000005D
:1003A000361711241FBECFEFD1E2DEBFCDBF00E074
:1003B0000CBF2DE0ACE3B9E001C01D92A33DB20734
:1003C000E1F719E0A0E0B2E0ECEFF0E700E00BBFEE
:1003D00002C007900D92AC33B107D9F711E0C1ED1F
:1003E000D1E000E006C021970109802FFE010E94A4
:1003F0004D30C03DD10780E00807A9F70E94F518ED
:100400000C947C38FDCDCF93DF93EC019A01AB01C6
:10041000E889F98982E08083211581EE380741055A
:10042000510581F160E079E08DE390E00E94802D3C
:10043000215031094109510956954795379527951E
:10044000EC85FD851082EE85FF852083188EEC8972
:10045000FD8986E08083EA89FB89808180618083D1
:10046000EA89FB89808188608083EA89FB898081B1
:1004700080688083EA89FB8980818F7D8083DF911A
:10048000CF910895E889F989108220E1D9CFCF93DF
:10049000DF9300D000D01F921F92CDB7DEB788E067
:1004A000EEE6FBE0DE01119601900D928A95E1F7F0
:1004B00029813A814B815C816D817E818F81988514
:1004C00028960FB6F894DEBF0FBECDBFDF91CF9157
:1004D00008956F927F928F929F92AF92BF92CF9228
:1004E000DF92EF92FF920F931F93CF93DF93C09110
:1004F000C509AC2FB0E020E833E341EE51E00E94A3
:10050000A22D4B015C01E2EBF7E09D01C4E6D0E0D7
:1005100000E911E0CF01825B97408217930794F1C5
:100520006090C409712C2E54384FC90164E670E004
:100530000E941E307C01C90160E971E00E941E30FA
:100540006C0101EA12E0C1E0D0E0F901E370FF279D
:10055000C615D7050CF03FC0C230D10569F53097FC
:1005600059F5E114F10419F4C114D10429F5A0E8F6
:100570008A0EABE39A1EA6E2AA1EB11C21960F5F5B
:100580001F4FE6CFCF0183709927892B99F4CF01B4
:10059000BE010E941E30892B31F4CF01B8010E94A8
:1005A0001E30892B39F480E8880E81E5981E81E0A1
:1005B000A81EB11C3196AECFD8018C91A82FB0E007
:1005C00020E831E541E050E00E94A22D860E971E02
:1005D000A81EB91ED3CF2091C10930E0A0E1BEE032
:1005E0000E94AC2D6B017C012091C00930E0ACE38E
:1005F000B0E00E94AC2DC60ED71EE81EF91E8091F9
:10060000BF09C80ED11CE11CF11CA091C309A15067
:10061000BB0B20E831E541E050E00E9455306C0D05
:100620007D1D8E1D9F1D680D791D8A1D9B1DDF91EF
:10063000CF911F910F91FF90EF90DF90CF90BF90DF
:10064000AF909F908F907F906F900895AF92BF92E0
:10065000CF92DF92EF92FF920F931F93CF93DF938E
:100660006C017B018B01040F151FEB015E01AE18BD
:10067000BF08C017D10759F06991D601ED91FC91DF
:100680000190F081E02DC6011995892B79F7C501FC
:10069000DF91CF911F910F91FF90EF90DF90CF905E
:1006A000BF90AF900895FC01A089B1898C91A68973
:1006B000B78982FD0FC09C91818D8F5F8F73228DD2
:1006C000821749F0A18DAE0FBF2FB11D5D969C938F
:1006D000818F08958C910895FC01538D448D252FB1
:1006E00030E0842F90E0821B930B541710F0CF96CC
:1006F000089501970895FC01918D828D981761F0FE
:10070000A28DAE0FBF2FB11D5D968C91928D9F5F14
:100710009F73928F90E008958FEF9FEF0895FC01F3
:10072000918D828D981731F0828DE80FF11D858DA6
:1007300090E008958FEF9FEF0895FC01918D228D39
:10074000892F90E0805C9F4F821B91098F739927BE
:1007500008958BED99E0F1DF21E0892B09F420E089
:10076000822F089581EB9BE0E8DF21E0892B09F4DB
:1007700020E0822F089588E79AE0DFDF21E0892BCF
:1007800009F420E0822F0895FC01A48DA80FB92F51
:10079000B11DA35ABF4F2C91848D90E001968F73A9
:1007A0009927848FA689B7892C93A089B1898C91C8
:1007B000837080648C93938D848D981306C0028817
:1007C000F389E02D80818F7D80830895EF92FF92E1
:1007D0000F931F93CF93DF93EC0181E0888F9B8D64
:1007E0008C8D98131AC0E889F989808185FF15C01E
:1007F0009FB7F894EE89FF896083E889F989808141
:100800008370806480839FBF81E090E0DF91CF910F
:100810001F910F91FF90EF900895F62E0B8D10E031
:100820000F5F1F4F0F731127E02E8C8D8E110BC0A1
:100830000FB607FCFACFE889F989808185FFF5CFEB
:10084000CE01A2DFF2CFEB8DEC0FFD2FF11DE35AAD
:10085000FF4FF0829FB7F8940B8FEA89FB89808164
:100860008062D0CFCF93DF93EC01888D8823B1F0E5
:10087000AA89BB89E889F9898C9185FD03C08081AB
:1008800086FD0CC00FB607FCF7CF8C9185FFF2CF29
:10089000808185FFEDCFCE0177DFEACFDF91CF9169
:1008A000089580E090E0892B21F065DF81110E949E
:1008B000000080E090E0892B21F054DF81110E943C
:1008C000000080E090E0892B49F080E090E0892BE7
:1008D00029F00E94000081110E94000080E090E059
:1008E000892B21F036DF81110C940000089581508E
:1008F000823108F05AC0E82FF0E08827ED57FB4F0F
:100900008F4F0C944D30A304A70495049B049F04BF
:10091000D504AA04B004B404BA04BE04C204C804D2
:10092000CC04D504D004D604DA04809180008F77FB
:10093000809380000895809180008F7DF9CF809111
:100940008000877FF5CF84B58F7784BD089584B507
:100950008F7DFBCF8091B0008F778093B00008959A
:100960008091B0008F7DF9CF809190008F77809338
:1009700090000895809190008F7DF9CF8091900034
:10098000877FF5CF8091A0008F778093A000089596
:100990008091A0008F7DF9CF8091A000877FF5CF57
:1009A000809120018F77809320010895809120010C
:1009B0008F7DF9CF80912001877FF5CFCF93DF9393
:1009C000EBE5F3E08491E5E1F3E0D491EFECF2E0C4
:1009D000C491CC2399F081118ADFEC2FF0E0EE0F67
:1009E000FF1FED54FD4FA591B491EC91ED2381E0F3
:1009F00090E009F480E0DF91CF91089580E090E0ED
:100A0000FACF1F93CF93DF93282F30E0F901E75AF5
:100A1000FC4F8491F901ED5EFC4FD491F901E35351
:100A2000FD4FC491CC23A1F0162F811160DFEC2F74
:100A3000F0E0EE0FFF1FE756FD4FA591B4918FB781
:100A4000F894EC91111108C0D095DE23DC938FBF90
:100A5000DF91CF911F910895DE2BF8CFCF93DF93D5
:100A600090E0FC01ED5EFC4F249183539D4FFC010F
:100A700084918823D1F090E0880F991FFC01E15800
:100A8000FD4FA591B491FC01E756FD4FC591D4915E
:100A9000623071F49FB7F8943C91822F8095832344
:100AA0008C93E8812E2B28839FBFDF91CF910895EF
:100AB0008FB7F894EC912E2B2C938FBFF6CF3FB7C6
:100AC000F8948091530990915409A0915509B091DF
:100AD000560926B5A89B05C02F3F19F00196A11D08
:100AE000B11D3FBFBA2FA92F982F8827BC01CD0178
:100AF000620F711D811D911D42E0660F771F881FD7
:100B0000991F4A95D1F708958F929F92AF92BF9205
:100B1000CF92DF92EF92FF926B017C01D0DF4B010D
:100B20005C01C114D104E104F104B1F0C8DF68191B
:100B300079098A099B09683E73408105910588F30C
:100B400021E0C21AD108E108F10888EE880E83E09E
:100B5000981EA11CB11CE5CFFF90EF90DF90CF90C5
:100B6000BF90AF909F908F9008952FB7F8946091A9
:100B70004F097091500980915109909152092FBFEE
:100B800008958F929F92AF92BF92CF92DF92EF9291
:100B9000FF92CF934B015C01C42F20E030E048EC82
:100BA00052E40E94482E0E94B02E6B0184E68C9D78
:100BB000B0018D9D700D1124072E000C880B990B30
:100BC0000E94572C9B01AC01C501B4010E94C92DA4
:100BD00020E030E040E752E40E94482E4B015C01E7
:100BE000B601DD0C880B990B0E94572C9B01AC01C0
:100BF000C501B4010E94CA2DCB7FC33509F49058BA
:100C0000CF91FF90EF90DF90CF90BF90AF909F90EB
:100C10008F9008958F929F92AF92BF92CF92DF9262
:100C2000EF92FF920F931F93CF93DF934B015C01E1
:100C30007A01E90120E030E44CE156E40E94482EBC
:100C40000E94B02EF70160837727072E000C880BD7
:100C5000990B0E94572C20E030E44CE156E40E94AE
:100C6000B62C9B01AC01C501B4010E94C92D6B01DA
:100C70007C0120E030E048EC52E40E94482E0E94C3
:100C8000B02E68837727072E000C880B990B0E94E3
:100C9000572C20E030E048EC52E40E94B62C9B0137
:100CA000AC01C701B6010E94C92D0E94B02EF80107
:100CB0006083DF91CF911F910F91FF90EF90DF90B4
:100CC000CF90BF90AF909F908F900895CF93DF9378
:100CD000FC012381222329F1EC0161E08481BEDE45
:100CE00061E08D81BBDE8B81843011F0883091F41E
:100CF00061E08E81B3DE61E08F81B0DE8FA58F3F32
:100D000081F061E0ABDE6EA581E068278FA5DF9101
:100D1000CF9177CE833011F0863081F761E08E81FC
:100D2000ECCFDF91CF910895CF93DF93FC01238126
:100D3000222399F0EC010190F081E02D0480F581EF
:100D4000E02D60E019958FA58F3F39F061E086DED8
:100D50006EA58FA5DF91CF9154CEDF91CF910895ED
:100D6000DC01ED91FC911197248135814770552765
:100D700066277727415051096109710947305105AC
:100D80006105710570F4FA018827E653F94F8F4F1A
:100D90000C944D30D506D706D906DB06DD06DF06F6
:100DA000E10661E0CD01F901199465E0FBCF64E053
:100DB000F9CF66E0F7CF62E0F5CF6AE0F3CF68E005
:100DC000F1CF69E0EFCFCF93DF93EC01CB01BA0114
:100DD00026E030E040E050E00E94313062307105A2
:100DE0008105910589F16CF4611571058105910505
:100DF000D1F06130710581059105F9F0DF91CF9156
:100E00000895643071058105910561F124F1653023
:100E100071058105910591F7E881F9810480F581DB
:100E2000E02D66E006C0E881F9810480F581E02DBF
:100E300064E0CE01DF91CF911994E881F9810480BB
:100E4000F581E02D65E0F5CFE881F9810480F58139
:100E5000E02D61E0EECFE881F9810480F581E02D9D
:100E600063E0E7CFE881F9810480F581E02D62E05D
:100E7000E0CFDC01ED91FC910480F581E02D437021
:100E8000552766277727423051056105710571F0B6
:100E9000433051056105710559F041305105610537
:100EA000710511F065E0199466E0FDCF6AE0FBCFB3
:100EB00069E0F9CFCF93DF93EC01CB01BA0123E0D6
:100EC00030E040E050E00E94313061307105810532
:100ED000910599F06230710581059105A9F0672BA4
:100EE000682B692BC1F4E881F9810480F581E02D3C
:100EF00064E0CE01DF91CF911994E881F9810480FB
:100F0000F581E02D61E0F5CFE881F9810480F5817C
:100F1000E02D62E0EECFDF91CF910895DC01ED91FD
:100F2000FC910480F581E02D4370552766277727D3
:100F3000423051056105710571F04330510561057D
:100F4000710559F0413051056105710511F062E0FC
:100F5000199463E0FDCF61E0FBCF60E0F9CFCF9360
:100F6000DF93EC01E881F9810480F581E02D8A812D
:100F700060E0811162E0CE011995E881F981048079
:100F8000F581E02D8A8161E0811163E0CE01199540
:100F90008CA59DA58230910538F0880F991F880F88
:100FA000991F05970197F1F7E881F9810480F58190
:100FB000E02D8A8160E0811162E0CE01DF91CF9166
:100FC0001994CF93DF93EC0120E030E0A9016C8904
:100FD0007D898E899F890E94C72F18162CF4E8A955
:100FE000F9A9DF91CF911994EAA9FBA9FACFCF9281
:100FF000DF92EF92FF920F931F93CF93DF93DC0169
:101000001396CC91C43039F0C83051F1C33019F087
:10101000C63041F1C2E08C010C5F1F4FF12CE12C76
:10102000C62ED12CD1E0F8016481C6010E2C02C07D
:10103000959587950A94E2F780FD6D270F5F1F4F06
:101040008081DFDCBFEFEB1AFB0AEC1660F3DF9167
:10105000CF911F910F91FF90EF90DF90CF90089567
:10106000C4E0D9CFC3E0D7CFDC011396EC9113973E
:10107000E93008F042C0F0E08827EE5BF74F8F4F71
:101080000C944D304B0853085A08610868087D08D5
:101090006F087D087608ED91FC9111970084F18529
:1010A000E02DCD011994ED91FC9111970284F38507
:1010B000E02DF7CFED91FC9111970484F585E02D9B
:1010C000F0CFED91FC9111970684F785E02DE9CFE3
:1010D000ED91FC9111970088F189E02DE2CFED911F
:1010E000FC9111970288F389E02DDBCFED91FC9103
:1010F00011970488F589E02DD4CF08954F925F921F
:101100006F927F928F929F92AF92BF92CF92DF9217
:10111000EF92FF920F931F93CF93DF93EC01C88858
:10112000D988EA88FB888C859D85AE85BF85C81ADD
:10113000D90AEA0AFB0A6C897D898E899F899B01FD
:10114000AC010E94B62C4B015C016C8D7D8D8E8DA7
:101150009F8D9B01AC010E94CA2D9B01AC01C50172
:10116000B4010E94482E0E94B02EC114D104E104A3
:10117000F10409F0B1C062307105810591050CF0F0
:10118000CBC01CA21DA21EA21FA21C8A1D8A1E8AE1
:101190001F8A1CAA1DAA1EAA1FAADF91CF911F9108
:1011A0000F91FF90EF90DF90CF90BF90AF909F9006
:1011B0008F907F906F905F904F900895101611065A
:1011C00012061306B4F46C157D058E059F051CF4FC
:1011D0002A812111A1C09B01AC0188279927DC013C
:1011E000821B930BA40BB50B8CAB9DABAEABBFAB13
:1011F00093C0011511052105310509F48DC06C1549
:101200007D058E059F050CF087C08A81882309F42F
:1012100083C030952095109501951F4F2F4F3F4F5C
:101220000CAB1DAB2EAB3FAB77C0011511052105F3
:10123000310509F471C08824992454018C189D0843
:10124000AE08BF08681579058A059B050CF064C0D7
:101250008A81811161C0DDCFCCACDDACEEACFFACDE
:10126000A7019601C701B6010E94CA2D2B013C01BE
:10127000C501B4010E94572C20E030E040E850E462
:101280000E94B62C20E030E040E85FE30E94CA2DC7
:101290009B01AC01C301B2010E94482E9B01AC012D
:1012A000C701B6010E94C92D3B016C01FE01E05C43
:1012B000FF4FE080F180028113819701A8010E9415
:1012C000C72F181614F473018601C701D8018CAF1B
:1012D0009DAFAEAFBFAF3AC00CA91DA92EA93FA9C3
:1012E0001C141D041E041F040CF468CF10161106F4
:1012F000120613060CF099CF0027112798010C193C
:101300001D092E093F0960177107820793070CF02A
:1013100062CF2A8121115FCF8CA89DA8AEA8BFA85B
:1013200081149104A104B10409F096CF88AD99AD60
:10133000AAADBBAD8CAF9DAFAEAFBFAF81E01C140B
:101340001D041E041F040CF080E08A833FEF831A03
:10135000930AA30AB30A8CAA9DAAAEAABFAACCACD0
:10136000DDACEEACFFACC701B6010E94B52E6CA39C
:101370007DA38EA39FA3A701960160E074E284E79A
:1013800099E40E94482E6C8B7D8B8E8B9F8B2A81DB
:10139000211103CF90586C8B7D8B8E8B9F8BFDCE54
:1013A000CF92DF92EF92FF92CF93DF93EC018CA16B
:1013B0009DA1AEA1BFA1892B8A2B8B2B81F17FDB55
:1013C0006B017C0188A599A5AAA5BBA5B701A601BB
:1013D000481B590B6A0B7B0B8CA19DA1AEA1BFA131
:1013E000481759076A077B07D0F08C859D85AE8525
:1013F000BF852A812223A1F10196A11DB11D8C87F1
:101400009D87AE87BF874C855D856E857F85CE01C4
:101410002BDEC8A6D9A6EAA6FBA6CE016FDE20E089
:1014200030E0A9016C897D898E899F890E94512CA9
:1014300081111AC081E0C888D988EA88FB884C8568
:101440005D856E857F85C416D506E606F70609F428
:1014500080E0DF91CF91FF90EF90DF90CF900895E3
:101460000197A109B109CBCF81E0F3CF60934A097D
:1014700070934B0980934C0990934D09645D7E4FA6
:101480008F4F9F4F60934609709347098093480997
:101490009093490982E090E0909345098093440934
:1014A00064DB6093400970934109809342099093F3
:1014B00043090895CF92DF92EF92FF920F931F930B
:1014C00054DB8B019C01C0904009D0904109E09011
:1014D0004209F090430960914A0970914B0980914B
:1014E0004C0990914D090C191D092E093F09083E20
:1014F000134021053105E0F0DC01CB010196A11D6F
:10150000B11D80934A0990934B09A0934C09B09365
:101510004D09B701A60148515C4F6F4F7F4F409373
:101520004009509341096093420970934309C8CF21
:101530001F910F91FF90EF90DF90CF9008954F9201
:101540005F926F927F928F929F92AF92BF92CF9253
:10155000DF92EF92FF920F931F93CF93DF934B0194
:101560005C0180913C0990913D09A0913E09B091A8
:101570003F0988159905AA05BB0509F4C6C08CE387
:10158000C82ED12CE12CF12CC501A70196010E9497
:10159000802D6093BF09CA01B901A70196010E947D
:1015A000802D6093C009C501B40120E13EE040E018
:1015B00050E00E94802DCA01B90128E130E040E0EE
:1015C00050E00E94802D6093C109C501B40120E85C
:1015D00031E541E050E00E94802D69017A01CA01A5
:1015E000B9016C5F7F4F8F4F9F4F27E030E040E0A5
:1015F00050E00E94802D6F5F6093C209412C512CF6
:10160000320140E004E610E0C0E9D1E0242F30E0F0
:101610002E54384FF901E370FF273097F9F4C901D0
:10162000B8010E941E30892B31F4C901BE010E940D
:101630001E30892B99F48EE691E0A0E0B0E0480ED0
:10164000591E6A1E7B1ED301C201AA27BB27C816DA
:10165000D906EA06FB0638F04F5FD8CF8DE691E059
:10166000A0E0B0E0ECCF4093C509C90164E670E0AA
:101670000E941E30EC01C90160E971E00E941E3039
:10168000309721F42097D9F40097C9F04DE651E046
:1016900060E070E0441A550A660A770AC418D50853
:1016A000E608F708A1EAB2E020E0213069F43097BB
:1016B000E9F5209711F40097C9F54DE106C04EE613
:1016C00051E060E070E0E6CF4C9150E070E060E007
:1016D00031E0320FC416D506E606F70640F0C41A0C
:1016E000D50AE60AF70A1196232F3C30F1F62F5F50
:1016F0002093C409C394C092C30980923C0990927C
:101700003D09A0923E09B0923F09DF91CF911F9110
:101710000F91FF90EF90DF90CF90BF90AF909F9090
:101720008F907F906F905F904F9008954CE1CDCF58
:101730008F929F92AF92BF92CF92DF92EF92FF92E1
:101740000F931F93CF93DF93EC010FDAECA5FDA568
:101750008E010A5B1F4F9E01265B3F4F7901683B5C
:101760007B408105910508F06EC0D8014D915D91D7
:101770006D917C914487558766877787408B518B25
:10178000628B738B14AA15AA16AA17AA14A215A203
:1017900016A217A2148A158A168A178AEEA5FFA523
:1017A000D7014D915D916D917C9113974487558739
:1017B00066877787408B518B628B738B14AA15AA2F
:1017C00016AA17AA14A215A216A217A2148A158A7D
:1017D000168A178AF80140815181628173818D9147
:1017E0009D910D90BC91A02D3897408351836283C9
:1017F0007383349680839183A283B3833C96408322
:10180000518362837383349680839183A283B383ED
:1018100081E0888B8BA5882349F0DE01A25BBF4F56
:1018200088E0F80101900D928A95E1F7DF91CF9160
:101830001F910F91FF90EF90DF90CF90BF90AF90EE
:101840009F908F900895188AD8018D909D90AD90AB
:10185000BC90408951896289738984169506A606D1
:10186000B70631F0808A918AA28AB38ACF0146DC1A
:101870008EA59FA5F7014081518162817381DC01B2
:101880005096CD90DD90ED90FC9053974C155D05F2
:101890006E057F0509F4BECFFC01408B518B628B36
:1018A000738B2CDCB7CFFB0101900020E9F7319757
:1018B000AF01461B570BDC01ED91FC910280F381D7
:1018C000E02D19948F929F92AF92BF920F931F9326
:1018D000CF93DF93CDB7DEB7A1970FB6F894DEBFF5
:1018E0000FBECDBF19A2423008F44AE08E010F5D51
:1018F0001F4F842E912CB12CA12CA50194010E9484
:10190000802DE62FB901CA01EA30FCF4E05DD80170
:10191000EE938D01232B242B252B79F790E080E08B
:10192000109721F0BD0188E79AE0BDDFA1960FB6C0
:10193000F894DEBF0FBECDBFDF91CF911F910F9105
:10194000BF90AF909F908F900895E95CE0CFCF92C9
:10195000DF92EF92FF92CF93DF936B017C016DE2F8
:1019600088E79AE00E94E603EC0166277727CB011F
:101970006C197D098E099F094AE0A4DF8C0F9D1F19
:10198000DF91CF91FF90EF90DF90CF9008954F922D
:101990005F926F927F928F929F92AF92BF92CF92FF
:1019A000DF92EF92FF920F931F93CF936B017C0115
:1019B000742EAC019B010E94133063EE72E0811122
:1019C00026C046015701E894B7F82FEF3FEF4FE7E5
:1019D0005FE7C501B4010E94133081110CC02FEFE5
:1019E0003FEF4FE75FE7C501B4010E94512C67EE5E
:1019F00072E0181664F02FEF3FEF4FE75FE4C70186
:101A0000B6010E94C72F1816A4F46BEE72E088E7A7
:101A10009AE0CF911F910F91FF90EF90DF90CF90C0
:101A2000BF90AF909F908F907F906F905F904F90FE
:101A30003ACF2FEF3FEF4FE75FECC701B6010E94AF
:101A4000512C87FDE2CF20E030E0A901C701B601AB
:101A50000E94512C10E000E087FF0AC06DE288E789
:101A60009AE00E94E6038C01F7FAF094F7F8F094FC
:101A7000C0E060E070E080E09FE37C1641F020E091
:101A800030E040E251E40E94482ECF5FF6CFA7013C
:101A900096010E94CA2D2B013C010E94B52E4B01DC
:101AA0005C014AE00FDF7C01E00EF11ECC23B9F1AE
:101AB000C501B4010E94552C9B01AC01C301B201C8
:101AC0000E94C92D4B015C016EE288E79AE00E94FA
:101AD000E603E80EF91EC15010F120E030E040E2CC
:101AE00051E4C501B4010E94B62C2B013C010E94B7
:101AF000B52E4B01B12CA12C4AE0C501B401E2DEA8
:101B0000E80EF91EC501B4010E94552C9B01AC01E1
:101B1000C301B2010E94C92D4B015C01DCCFC7019A
:101B2000CF911F910F91FF90EF90DF90CF90BF90DA
:101B3000AF909F908F907F906F905F904F9008959F
:101B400069ED73E0B0CECF93DF9342E020DFEC018C
:101B500088E79AE0F5DF8C0F9D1FDF91CF91089504
:101B6000CF93DF93FC01448155816081718188E7C7
:101B70009AE00E942603EC0188E79AE0E1DF8C0FEF
:101B80009D1FDF91CF9108950F931F93CF93DF9304
:101B90008C01D0E0C0E06115710511F084DEEC012C
:101BA000C801CEDF8C0F9D1FDF91CF911F910F9148
:101BB0000895CF93DF93EC01798368836FEE72E031
:101BC00088E79AE0E1DF68817981072E000C880BB5
:101BD000990B97FF06C0BBDE88E79AE0DF91CF91B3
:101BE000AFCF4AE06FDEF8CF5ECE8F929F92AF927A
:101BF000BF92CF92DF92EF92FF920F931F93CF93FA
:101C0000DF93CDB7DEB7A4970FB6F894DEBF0FBE53
:101C1000CDBF61E073E08BED99E0B6DF61E073E08A
:101C200088E79AE0B1DF0E944702698F7A8F8B8F35
:101C30009C8F20E030E04AE754E4698D7A8D8B8DEB
:101C40009C8D0E94B62C0E94B02E4B015C01DC01E1
:101C5000CB01B7FE07C088279927DC0188199909AD
:101C6000AA09BB09BF93AF939F938F9385E093E03D
:101C70009F938F937E018BE0E80EF11CFF92EF9211
:101C80000E9489326BE073E08BED99E0ADDF6BE091
:101C900073E088E79AE0A8DF0FB6F894DEBF0FBEC6
:101CA000CDBF07E817E0181419041A041B0414F434
:101CB0000FEF12E0B8018BED99E096DFB80188E7ED
:101CC0009AE092DFB7018BED99E05EDFB70188E71C
:101CD0009AE05ADF0E9447022D8F3E8F4F8F58A304
:101CE00020E030E04AE754E46D8D7E8D8F8D98A121
:101CF0000E94B62C0E94B02E6B017C01DC01CB014E
:101D0000F7FE07C088279927DC018C199D09AE09C9
:101D1000BF09BF93AF939F938F9385E093E09F9309
:101D20008F938E010F5F1F4F1F930F930E94893275
:101D30006EE073E08BED99E057DF6EE073E088E7CB
:101D40009AE052DF0FB6F894DEBF0FBECDBF1C1471
:101D50001D041E041F0464F197E8E92E97E0F92E94
:101D6000B7018BED99E040DFB70188E79AE03CDFEF
:101D7000B8018BED99E008DFB80188E79AE004DF4D
:101D800061E173E088E79AE0FFDEA4960FB6F8946D
:101D9000DEBF0FBECDBFDF91CF911F910F91FF909E
:101DA000EF90DF90CF90BF90AF909F908F9008956D
:101DB0008FEFE82E82E0F82ED3CF40E855E260E0C6
:101DC00070E08BED99E00E9403026DE273E08BED11
:101DD00099E0DADE0ACF4F925F926F927F928F92F4
:101DE0009F92AF92BF92CF92DF92EF92FF920F93AA
:101DF0001F93CF93DF93CDB7DEB72C970FB6F89430
:101E0000DEBF0FBECDBF88E0EEE7FBE0DE0111963E
:101E100001900D928A95E1F78D809E80AF80B88405
:101E2000C501B4010E94B02E6B01072E000C880B77
:101E3000990B0E94572C2B013C01AC019B01C50161
:101E4000B4010E94C92D20E030E040E752E40E9436
:101E5000B62C0E94B02E69877A878B879C8729854C
:101E60003A85B901330F880B990B0E94572C20E05B
:101E700030E040E752E40E94482EA30192010E9404
:101E8000CA2D9B01AC01C501B4010E94C92D20E0FF
:101E900030E041E655E40E94B62C0E94B02E8DE25F
:101EA0001C141D040CF48BE27F936F933A853F93CF
:101EB00099859F931F929FED9F93DF92CF921F92E0
:101EC0008F9381E393E09F938F9380ED99E09F93AD
:101ED0008F930E9489320FB6F894DEBF0FBECDBF3C
:101EE00060ED79E088E79AE02C960FB6F894DEBFB3
:101EF0000FBECDBFDF91CF911F910F91FF90EF905B
:101F0000DF90CF90BF90AF909F908F907F906F9019
:101F10005F904F9069CE4F925F926F927F928F92B7
:101F20009F92AF92BF92CF92DF92EF92FF92CF93A8
:101F3000DF93CDB7DEB72C970FB6F894DEBF0FBE98
:101F4000CDBF88E0EEE7FBE0DE01119601900D9237
:101F50008A95E1F720E030E040E751E469817A8139
:101F60008B819C810E94482E4B015C010E94B02E07
:101F700069877A878B879C8729853A85B901330FD2
:101F8000880B990B0E94572C2B013C01AC019B0143
:101F9000C501B4010E94C92D20E030E040E752E4C1
:101FA0000E94B62C0E94B02E6B01072E000C880BED
:101FB000990B0E94572C20E030E040E752E40E9449
:101FC000482EA30192010E94CA2D9B01AC01C501BC
:101FD000B4010E94C92D20E030E041E655E40E94A2
:101FE000B62C0E94B02E7F936F93DF92CF923A85EA
:101FF0003F9389858F9384E493E09F938F9386EC3E
:1020000099E09F938F930E9489320FB6F894DEBFB8
:102010000FBECDBF66EC79E088E79AE02C960FB64C
:10202000F894DEBF0FBECDBFDF91CF91FF90EF9050
:10203000DF90CF90BF90AF909F908F907F906F90E8
:102040005F904F90D1CDEF92FF920F931F93CF935C
:10205000DF9300D000D01F921F92CDB7DEB77C0176
:1020600009831A832B833C834D835E836F83788738
:1020700088E79AE065DD64E573E088E79AE0B4DD1F
:1020800069817A818B819C8142E081DC68E673E022
:1020900088E79AE0A9DD6D817E818F81988542E095
:1020A00076DC6DE673E088E79AE09EDD88E0F70174
:1020B0007396D7015B9601900D928A95E1F788E0BF
:1020C000FE013196D701539601900D928A95E1F762
:1020D00028960FB6F894DEBF0FBECDBFDF91CF912B
:1020E0001F910F91FF90EF900895EF92FF920F9341
:1020F0001F93CF93DF9300D000D01F921F92CDB7D4
:10210000DEB77C0162E070E0029653DD88E0E5E135
:10211000F2E0DE01119601900D928A95E1F70981B6
:102120001A812B813C814D815E816F817885C70149
:102130008ADFD701ED91FC910280F381E02DC70188
:1021400028960FB6F894DEBF0FBECDBFDF91CF91BA
:102150001F910F91FF90EF9019940F931F93CF93BE
:10216000DF93EC0188819981009759F02A813B81A6
:102170002617370730F081E0DF91CF911F910F9143
:1021800008958B016F5F7F4F0E949431009759F043
:10219000998388831B830A832C813D81232B59F7E4
:1021A000FC011082E8CF80E0E7CFCF93DF93EC0112
:1021B00088819981009711F00E940B311982188251
:1021C0001D821C821B821A82DF91CF910895EF92AB
:1021D000FF920F931F93CF93DF93EC017B01198242
:1021E00018821B821A821D821C82FB010190002032
:1021F000E9F731978F01061B170BB801AEDF81118C
:1022000008C0CE01DF91CF911F910F91FF90EF9009
:10221000CCCF1D830C83B70188819981DF91CF9149
:102220001F910F91FF90EF900C948232EF92FF92EA
:102230000F931F93CF93DF938C017B01EB010990E8
:102240000020E9F72197C61BD70BBE0186DF81115D
:1022500008C0C801DF91CF911F910F91FF90EF90BF
:10226000A4CFF801D583C483B70180819181DF9128
:10227000CF911F910F91FF90EF900C9482320F93AA
:102280001F93CF93DF93CDB7DEB762970FB6F89465
:10229000DEBF0FBECDBF8C01CB01F80111821082D1
:1022A00013821282158214824AE0BE016F5F7F4F53
:1022B0000E945628BE016F5F7F4FC801B7DF62964C
:1022C0000FB6F894DEBF0FBECDBFDF91CF911F9147
:1022D0000F910895EF92FF920F931F93CF93DF9387
:1022E000EC01FB01E080F180E114F10409F10481CB
:1022F000158101151105A1F08C819D81080F191F11
:10230000B801CE012ADF882399F0288139818C8198
:102310009D81B701820F931F0E9482321D830C831F
:10232000CE01DF91CF911F910F91FF90EF90089513
:10233000CE013BDFF5CFFC01808191810C940B3104
:102340004F925F926F927F928F929F92AF92BF92C5
:10235000CF92DF92EF92FF92CF93DF93EC016A016D
:102360007B0120E030E0A901CB01B6010E94512C95
:1023700087FF04C0F7FAF094F7F8F0948C8C9D8CEA
:10238000AE8CBF8CA7019601C501B4010E94512CEF
:10239000882309F449C06CA97DA98EA99FA90E9430
:1023A000572C2B013C01A7019601C501B4010E94E5
:1023B000482E9B01AC01C301B2010E94B62C0E94C1
:1023C000B02E6CAB7DAB8EAB9FABA701960160E0EE
:1023D00070E080E090E40E94482E0E94D52F26E510
:1023E0003EE04DE25FE30E94B62C20E034E244E799
:1023F00059E40E94B62C68AF79AF8AAF9BAFCC8E00
:10240000DD8EEE8EFF8ECE01DF91CF91FF90EF90AB
:10241000DF90CF90BF90AF909F908F907F906F9004
:102420005F904F900C947E08DF91CF91FF90EF90DA
:10243000DF90CF90BF90AF909F908F907F906F90E4
:102440005F904F900895CF92DF92EF92FF920F939B
:102450001F93CF93DF93EB017B0124E0E20EF11C8D
:102460008B016C01C61AD70AC601800F911F0E940A
:102470006A2DF80181938F01EE15FF05A9F7CE01B2
:10248000DF91CF911F910F91FF90EF90DF90CF9050
:102490000895FF920F931F93CF93DF93EC01F62ED5
:1024A00008811981C8010E946A2DF81621F06F2D4C
:1024B000C8010E94722DCE01DF91CF911F910F9123
:1024C000FF9008954F925F926F927F928F929F92AA
:1024D000AF92BF92CF92DF92EF92FF92CF93DF93B2
:1024E000CDB7DEB72E970FB6F894DEBF0FBECDBFC7
:1024F0009E878D870E945A0A22D82091C10930E018
:10250000A0E1BEE00E94AC2D6B017C010E945A0A42
:1025100016D88090C0098CE3889E40011124092CB4
:10252000000CAA08BB080E945A0A09D88091BF096A
:10253000C80ED11CE11CF11C8C0C9D1CAE1CBF1CD8
:102540000E945A0A0E94552C20E030EC48EA57E4D9
:102550000E94482E20E036E34BE256E40E94C92D4B
:1025600020E03DEA4EE057E40E94482E6B017C01DA
:1025700029EB36ED43E05BE40E94B62C29E13DE512
:102580004CEB56E40E94CA2D2B013C0123EA38E5AE
:102590004EE65FE3C701B6010E94B62CA701960183
:1025A0000E94B62C9B01AC01C301B2010E94CA2D4E
:1025B0002B013C0128E939E040ED56E3C701B601A3
:1025C0000E94B62CA70196010E94B62CA701960185
:1025D0000E94B62C9B01AC01C301B2010E94C92D1F
:1025E0006B017C01C501B4010E94552C27EB39E534
:1025F00040E85FE30E94B62C9B01AC01C701B60125
:102600000E94CA2D20E030E041E655E40E94482EA9
:1026100020E030E046E156E40E94CA2D20E030E0A0
:1026200040EC51E40E94E82E2EE238ED42E05EE3F9
:102630000E94CA2D6B017C01AD85BE85D296CD92DC
:10264000DD92ED92FC92D59725E33AEF4EE85CE3FC
:1026500057966D917D918D919C915A970E94B62CC1
:102660004B015C010E94CB2F69837A838B839C830F
:10267000C501B4010E94452E4B015C01ED85FE852C
:102680002389348945895689C701B6010E94C92D1D
:1026900025E33AEF4EE85CE30E94B62C6D837E831F
:1026A0008F8398870E94452E2B013C0126E036ED52
:1026B00042E25FE3C501B4010E94B62CA30192017E
:1026C0000E94B62C4B015C0120E339E845E45FE34E
:1026D00069817A818B819C810E94B62C9B01AC011F
:1026E000C501B4010E94CA2D0E942E2E21EE3EE2A9
:1026F00045E652E40E94B62C4B015C0125E33AEF1B
:102700004EE85CE30E94B62C2B013C010E94CB2FCB
:1027100069877A878B879C87C301B2010E94452E07
:102720002B013C0120E339E845E45FE369857A85C4
:102730008B859C850E94B62C9B01AC0169817A81B6
:102740008B819C810E94C92D69837A838B839C83B2
:1027500026E036ED42E25FE3C301B2010E94B62CEF
:102760009B01AC0169817A818B819C810E94482EFA
:102770000E94BB2D21EE3EE245E652E40E94B62CBB
:102780002B013C016D817E818F8198850E94CB2F2A
:1027900020E030E0A9010E94C72F1816D4F4A3014D
:1027A000920160E070E084EB93E40E94C92D2B015C
:1027B0003C0120E030E0A9010E94512C87FF09C0B4
:1027C00020E030E044EB53E4C301B2010E94CA2D83
:1027D000EECF20E030E044EB53E4C301B2010E94AD
:1027E000C72F87FD0BC020E030E044EB53E4C3016A
:1027F000B2010E94C92D2B013C01EBCFAD85BE85F6
:10280000D6964D925D926D927C92D997FD0182AEE3
:1028100093AEA4AEB5AE28E23DEE45EA53E4C30163
:10282000B2010E94B62C0E94B02E2B013C0125E57E
:1028300035E54DE453E4C501B4010E94B62C0E9475
:10284000B02EED85FE85EA5BFF4F408251826282A9
:102850007382ED85FE85E65BFF4F60837183828323
:102860009383ED85FE85E25BFF4F80809180A2809F
:10287000B380481459046A047B0471F4ED85FE8525
:10288000EE5AFF4F80809180A280B3806815790551
:102890008A059B0509F4E2C081E0AD85BE859B9663
:1028A0008C93AD85BE859C96ED91FC916485758574
:1028B000868597850E94572C28E23DEE45EA53E431
:1028C0000E94482E25E33AEF4EE85CE30E94B62CC6
:1028D0004B015C01AD85BE859E96ED91FC916485B2
:1028E0007585868597850E94572C25E535E54DE44D
:1028F00053E40E94482E25E33AEF4EE85CE30E9441
:10290000B62C2B013C01C501B4010E94452E6D83FC
:102910007E838F839887C501B4010E94CB2F69877E
:102920007A878B879C87C301B2010E94452E4B0199
:102930005C01C301B2010E94CB2F69837A838B8330
:102940009C8326E036ED42E25FE3C501B4010E94BC
:10295000B62C2D813E814F8158850E94B62C4B01AB
:102960005C0120E339E845E45FE369817A818B818A
:102970009C810E94B62C9B01AC01C501B4010E9450
:10298000CA2D4B015C010E942E2E2B013C0121EE31
:102990003EE245E652E40E94B62C6D837E838F832F
:1029A0009887C301B2010E94452E2B013C0120E310
:1029B00039E845E45FE3C501B4010E94B62C9B01F0
:1029C000AC0169817A818B819C810E94C92D4B0168
:1029D0005C0126E036ED42E25FE3C301B2010E94F2
:1029E000B62C9B01AC01C501B4010E94482E0E9487
:1029F000BB2D21EE3EE245E652E40E94B62C4B018F
:102A00005C0120E030E0A90169857A858B859C8591
:102A10000E94C72F181654F4A501940160E070E0DD
:102A200084EB93E40E94C92D4B015C01A501940144
:102A3000C701B6010E94C92D6B017C0120E030E086
:102A4000A9010E94512C87FF0DC020E030E044EB2B
:102A500053E4C701B6010E94CA2DEECFED85FE8575
:102A600013A61FCF20E030E044EB53E4C701B601CA
:102A70000E94C72F87FD0BC020E030E044EB53E4F9
:102A8000C701B6010E94C92D6B017C01EBCFED851A
:102A9000FE85C3A2D4A2E5A2F6A28D819E81AF815C
:102AA000B88587A390A7A1A7B2A72E960FB6F894D2
:102AB000DEBF0FBECDBFDF91CF91FF90EF90DF90D3
:102AC000CF90BF90AF909F908F907F906F905F90CE
:102AD0004F9008951F920F920FB60F9211240BB6CC
:102AE0000F922F933F934F935F936F937F938F93A7
:102AF0009F93AF93BF93EF93FF938BED99E00E9469
:102B0000C403FF91EF91BF91AF919F918F917F91FE
:102B10006F915F914F913F912F910F900BBE0F904E
:102B20000FBE0F901F9018951F920F920FB60F9225
:102B300011240BB60F922F933F934F935F936F9394
:102B40007F938F939F93AF93BF93EF93FF938BEDFF
:102B500099E00E945303FF91EF91BF91AF919F9134
:102B60008F917F916F915F914F913F912F910F9036
:102B70000BBE0F900FBE0F901F9018951F920F92D3
:102B80000FB60F9211240BB60F922F933F934F93D2
:102B90005F936F937F938F939F93AF93BF93EF93C5
:102BA000FF9381EB9BE00E94C403FF91EF91BF91E3
:102BB000AF919F918F917F916F915F914F913F91D5
:102BC0002F910F900BBE0F900FBE0F901F90189576
:102BD0001F920F920FB60F9211240BB60F922F93E4
:102BE0003F934F935F936F937F938F939F93AF9395
:102BF000BF93EF93FF9381EB9BE00E945303FF9100
:102C0000EF91BF91AF919F918F917F916F915F9164
:102C10004F913F912F910F900BBE0F900FBE0F90D1
:102C20001F9018951F920F920FB60F9211240BB69A
:102C30000F922F933F934F935F936F937F938F9355
:102C40009F93AF93BF93EF93FF9388E79AE00E941F
:102C5000C403FF91EF91BF91AF919F918F917F91AD
:102C60006F915F914F913F912F910F900BBE0F90FD
:102C70000FBE0F901F9018951F920F920FB60F92D4
:102C800011240BB60F922F933F934F935F936F9343
:102C90007F938F939F93AF93BF93EF93FF9388E7B7
:102CA0009AE00E945303FF91EF91BF91AF919F91E2
:102CB0008F917F916F915F914F913F912F910F90E5
:102CC0000BBE0F900FBE0F901F9018951F920F9282
:102CD0000FB60F9211242F933F938F939F93AF932F
:102CE000BF9380914F0990915009A0915109B091E3
:102CF000520930914E0923E0230F2D3758F50196E4
:102D0000A11DB11D20934E0980934F099093500946
:102D1000A0935109B093520980915309909154099D
:102D2000A0915509B09156090196A11DB11D80933E
:102D3000530990935409A0935509B0935609BF9134
:102D4000AF919F918F913F912F910F900FBE0F9058
:102D50001F90189526E8230F0296A11DB11DD2CF12
:102D60001F920F920FB60F9211240BB60F922F9352
:102D70003F934F935F936F937F938F939F93AF9303
:102D8000BF93EF93FF93F0E0E0E01995FF91EF918F
:102D9000BF91AF919F918F917F916F915F914F9173
:102DA0003F912F910F900BBE0F900FBE0F901F9071
:102DB00018950F931F93CF93DF9300D000D000D0CE
:102DC000CDB7DEB78C01862FF801118210821382F5
:102DD00012821582148246E0BE016F5F7F4F90E041
:102DE0000E946828BE016F5F7F4FC8011FDA2996D5
:102DF0000FB6F894DEBF0FBECDBFDF91CF911F910C
:102E00000F910895EF92FF920F931F93CF93DF934B
:102E1000CDB7DEB7A1970FB6F894DEBF0FBECDBF1A
:102E20007C01CB01BA01F701118210821382128258
:102E3000158214828E010F5F1F4F26E048E00E942A
:102E40001128009781F0BC01C701F0D9A1960FB6F7
:102E5000F894DEBF0FBECDBFDF91CF911F910F91D0
:102E6000FF90EF900895C701A0D9F0CF2F923F9225
:102E70004F925F926F927F928F929F92AF92BF928A
:102E8000CF92DF92EF92FF920F931F93CF93DF9336
:102E9000EBEDF9E01382128248EE53E060E070E05F
:102EA000448355836683778381EB92E091838083AB
:102EB00025E331E03587248724E331E0378726870F
:102EC00020E331E0318B208B21E331E0338B228B07
:102ED00022E331E0358B248B26E331E0378B268BE0
:102EE000118E128E138E148E21EBE22E2BE0F22E19
:102EF000F70113821282448355836683778391831B
:102F000080832DEC30E0358724872CEC30E0378748
:102F1000268728EC30E0318B208B29EC30E0338B96
:102F2000228B2AEC30E0358B248B2EEC30E0378B73
:102F3000268B118E128E138E148EE8E7FAE0138220
:102F4000128244835583668377839183808385ECE3
:102F500090E09587848784EC90E09787868780EC63
:102F600090E0918B808B81EC90E0938B828B82EC54
:102F700090E0958B848B86EC90E0978B868B118EFE
:102F8000128E138E148EE5E1FBE0168217821086F6
:102F90001186128613861486158616861786108A61
:102FA000118A128A138A148A158A09E81DE03DECF9
:102FB000A32E32E0B32EF801B182A0822224239402
:102FC00023821486158616861786108A118A128A1D
:102FD000138A148A158A168A178A412C512C40E8C4
:102FE000642E4FE3742E408E518E628E738E148E3B
:102FF000158E168E178E40A251A262A273A214A241
:1030000015A216A217A2CC24C394D12CD5A6C4A66F
:1030100033243A9437A610A611A612A613A686E367
:10302000848387E3858364E0862E868275E0972E0D
:10303000978216A614AA15AA16AA17AA10AE11AE40
:1030400012AE13AE14AE15AE16AE17AE4092C90D49
:103050005092CA0D6092CB0D7092CC0D12821086E8
:10306000118612861386C8010E946606B301A2016A
:10307000C80166D9C5E4DDE0B982A8822B821C862E
:103080001D861E861F86188A198A1A8A1B8A1C8A20
:103090001D8A1E8A1F8A488E598E6A8E7B8E1C8ED0
:1030A0001D8E1E8E1F8E48A259A26AA27BA21CA250
:1030B0001DA21EA21FA2DDA6CCA63FA618A619A679
:1030C0001AA61BA68CE38C838DE38D838E829F8250
:1030D0001EA61CAA1DAA1EAA1FAA18AE19AE1AAEB9
:1030E0001BAE1CAE1DAE1EAE1FAE4092850D5092A3
:1030F000860D6092870D7092880D1A821886198647
:103100001A861B86CE010E946606B301A201CE017B
:1031100017D9AEE4BCE01196FC92EE9210921E0D0F
:1031200010921F0D1092200D1092210D1092220D61
:103130001092230D1092240D10922B0D10922C0D35
:1031400010922D0D10922E0D10922F0D1092300D09
:103150001092310D1092320D1092330D1092340DE9
:103160001092350D1092360D1092370D1092380DC9
:103170001092390D10923A0D10923B0D10923C0DA9
:1031800010923D0D10923E0D10923F0D1092400D89
:103190001092410D1092420D1092430D1092440D69
:1031A000EBE5FBE013821282108A118A128A83EC0B
:1031B00092E09183808313A615A704A7D7A7C6A77B
:1031C000B1ABA0ABDF91CF911F910F91FF90EF902A
:1031D000DF90CF90BF90AF909F908F907F906F9037
:1031E0005F904F903F902F900895CF93DF93CDB78E
:1031F000DEB7ED970FB6F894DEBF0FBECDBF789463
:1032000084B5826084BD84B5816084BD85B58260EB
:1032100085BD85B5816085BD80916E00816080939C
:103220006E00109281008091810082608093810005
:103230008091810081608093810080918000816015
:10324000809380008091B10084608093B100809170
:10325000B00081608093B000809191008260809383
:103260009100809191008160809391008091900005
:103270008160809390008091A10082608093A10082
:103280008091A10081608093A1008091A000816065
:103290008093A00080912101826080932101809120
:1032A00021018160809321018091200181608093C0
:1032B000200180917A00846080937A0080917A0066
:1032C000826080937A0080917A00816080937A0096
:1032D00080917A00806880937A001092C1001092E9
:1032E000570B1092580B1092590B10925A0B1092C8
:1032F000170B1092180B1092190B10921A0B0E94B8
:10330000B5056B017C014B015C0128EB820E2BE0C3
:10331000921EA11CB11C0E94B5056C157D058E0581
:103320009F0528F086169706A806B906A0F768EE4E
:1033300073E080E090E00E94840540E052EC61E0A0
:1033400070E088E79AE00E9403020E94B50560934E
:10335000170B7093180B8093190B90931A0B6AEC50
:1033600073E088E79AE00E94F40D0E94B5056B01B6
:103370007C014B015C013AE0830E911CA11CB11C45
:103380000E94B5056C157D058E059F0528F08616F3
:103390009706A806B906A0F711E010932B0B40E89A
:1033A00055E260E070E088E79AE00E9403026CED6D
:1033B00073E088E79AE00E94C40D0E94DD0E40E8A9
:1033C00055E260E070E081EB9BE00E94030261E067
:1033D0008DE00E942E0560E08DE00E940105BE0197
:1033E000675E7F4F90E080E02ED8BE01635F7F4F25
:1033F00084E090E028D8BE016F5F7F4F88E090E0C6
:1034000022D8898D9A8DAB8DBC8D809300029093CC
:103410000102A0930202B09303028D859E85AF85C1
:10342000B8898093040290930502A0930602B0939A
:10343000070289819A81AB81BC81809308029093B5
:103440000902A0930A02B0930B0264EF71E080E0DE
:1034500090E00E94840569EE73E080914E0C90919B
:103460004F0C0E94C40D6AEF73E080914E0C909156
:103470004F0C0E94C40D6BE074E080914E0C909153
:103480004F0C0E94C40D8BE59BE00E9475100E94BA
:103490008B0F0E94EB0E61E086E20E942E0561E038
:1034A00088E30E942E051092910D1093920D1092B8
:1034B000B70D20E030E04AE755E46091A10D70912E
:1034C000A20D8091A30D9091A40D0E94512C8823F0
:1034D00009F453C080E090E0AAE7B5E48093A10D21
:1034E0009093A20DA093A30DB093A40D80E090E063
:1034F000AAE7B3E48093C90D9093CA0DA093CB0DB6
:10350000B093CC0D8091BD0D9091BE0DA091BF0DDB
:10351000B091C00D181619061A061B0674F56091B5
:103520009D0D70919E0D80919F0D9091A00D9B011E
:10353000AC010E94B62C6B017C016091A50D7091CD
:10354000A60D8091A70D9091A80D9B01AC010E9442
:10355000CA2D9B01AC01C701B6010E94482E0E94F2
:10356000B02E6093BD0D7093BE0D8093BF0D9093F0
:10357000C00D89E89DE00E947E0840E050E066E9C9
:1035800073E489E89DE00E94A01110924D0D81E046
:1035900080934E0D1092730D20E030E44CE156E420
:1035A00060915D0D70915E0D80915F0D9091600D49
:1035B0000E94512C882309F453C080E090E4ACE1D0
:1035C000B6E480935D0D90935E0DA0935F0DB09374
:1035D000600D80E090E0A8ECB2E48093850D9093BC
:1035E000860DA093870DB093880D8091790D9091F1
:1035F0007A0DA0917B0DB0917C0D181619061A0654
:103600001B0674F56091590D70915A0D80915B0DF8
:1036100090915C0D9B01AC010E94B62C6B017C016A
:103620006091610D7091620D8091630D9091640DB8
:103630009B01AC010E94CA2D9B01AC01C701B601E0
:103640000E94482E0E94B02E6093790D70937A0DDF
:1036500080937B0D90937C0D85E49DE00E947E0815
:1036600040E050E068EC73E485E49DE00E94A01126
:103670006DE374E088E79AE00E94F40D61E574E080
:1036800088E79AE00E94F40D67E574E088E79AE025
:103690000E94C40D62E082E00E942E050E94DD0EB1
:1036A0001E014DE0240E311C0E94B505672B682BCE
:1036B000692B09F4EBC00E94B5050091BB0910917C
:1036C000BC092091BD093091BE09601771078207BE
:1036D000930708F42BC10091BB091091BC092091FC
:1036E000BD093091BE096B017C01C01AD10AE20A02
:1036F000F30A970186010A3F11052105310508F4F7
:10370000CDC06093BB097093BC098093BD099093B1
:10371000BE0924EF31E040E050E02093230B3093CA
:10372000240B4093250B5093260B1092270B1092DD
:10373000280B1092290B10922A0B80911B0B909151
:103740001C0BA0911D0BB0911E0B80931F0B90932F
:10375000200BA093210BB093220B0E94B505609320
:103760001B0B70931C0B80931D0B90931E0B0E94E0
:10377000B5056093170B7093180B8093190B9093FA
:103780001A0B0E94B5056B017C0160E674E088E7C6
:103790009AE00E94F40D4AE061E070E080E090E081
:1037A0000E94620C67E674E088E79AE00E94F40DDC
:1037B0004AE0C701B6010E94620C69E674E088E73E
:1037C0009AE00E94F40D80911B0B90911C0BA0912C
:1037D0001D0BB0911E0BA7019601281B390B4A0B3C
:1037E0005B0BCA01B9014AE00E94620C69E674E011
:1037F00088E79AE00E94F40D60911B0B70911C0BFE
:1038000080911D0B90911E0B00911F0B1091200BAE
:103810002091210B3091220B601B710B820B930BBB
:103820004AE00E94620C6BE674E088E79AE00E942E
:10383000F40D0E94B5054AE00E94620C6DE674E04A
:1038400088E79AE00E94C40D0E94B5054B015C0117
:103850007C016B0132E0C30ED11CE11CF11C0E9403
:10386000B505681579058A059B0528F0C616D706A3
:10387000E806F906A0F70E94B50560931B0B70934C
:103880001C0B80931D0B90931E0B08C00E94B50566
:10389000623071058105910508F00DCF80914E0CC5
:1038A00090914F0CDC01ED91FC910084F185E02DAD
:1038B0001995892B41F180914E0C90914F0CDC01B0
:1038C000ED91FC910284F385E02D199590915709B3
:1038D00021E0290F20935709092F10E0F801E25B3E
:1038E000F34F82838D3079F154F58A30E1F1E09124
:1038F0005709E23540F08FEF8E0F80935709F0E0C3
:10390000E25BF34F12820E94B50528EE33E040E0FF
:1039100050E00E94802D6D3B72408105910508F4B6
:103920006CC261E08DE00E94010542C26093BB0958
:103930007093BC098093BD099093BE09CCCE8432AC
:1039400059F08A32A1F690935709128290911E0D78
:10395000892780931E0DCBCF109257091092500CDF
:1039600010921E0DC4CF90935709128280911E0DA4
:103970008732B1F7025011093F922F9284E7C82E87
:1039800084E0D82EDF92CF92FF93EF930E94B8325B
:10399000F801E25BF34F1282E0E5FCE00F900F903C
:1039A0000F900F900F900F9080E09191992311F05C
:1039B0008927FBCF2D853E858217130689F660E5A2
:1039C0007CE083EA9CE00E94823210921F0DA3EA01
:1039D000BCE0CD012D912223A9F02C32D9F7FD01B5
:1039E00031971082E0911F0DE33160F421E02E0F3A
:1039F00020931F0DF0E0EE0FFF1FEA50F34F91836D
:103A00008083E7CFE0911F0D21E02E0F20931F0D43
:103A1000F0E0EE0FFF1FEA50F34F918380832D30CB
:103A200011F00C94BD26E091F60CF091F70CDF013B
:103A30000D900020E9F7CD0106978E179F0709F03A
:103A4000B1C0CF01029667E774E00E947932892BFA
:103A500009F083C08091F80C9091F90C0E943128F4
:103A6000BC01990F880B990B0E94572C07E21DE0AF
:103A700026E23DE045E25DE00E940A06E091FA0C94
:103A8000F091FB0C81E09081913409F080E080930B
:103A9000200D8091FC0C9091FD0C0E942E286093CB
:103AA000350D7093360D8093370D9093380DE0915E
:103AB000FE0CF091FF0C40810E94C1056093350D12
:103AC0007093360D8093370D9093380D8091000DD3
:103AD0009091010D0E942E286093390D70933A0D3C
:103AE00080933B0D90933C0DE091020DF091030DFE
:103AF00040810E94C1056093390D70933A0D809307
:103B00003B0D90933C0D8091040D9091050D0E940A
:103B10002E2860933D0D70933E0D80933F0D909342
:103B2000400D8091060D9091070D0E942E28609304
:103B3000410D7093420D8093430D9093440D8091FD
:103B4000080D9091090D0E942E280AE21DE029E23D
:103B50003DE048E25DE00E940A060E94B5056093E0
:103B6000210D7093220D8093230D9093240D11E06D
:103B700010935A098091200D81111BC060E08DE0E7
:103B80000E94010580915909811112C18091580943
:103B900081110EC180912C0D843008F409C110935D
:103BA0005809E2C090E080E04ECF90E080E00C94B5
:103BB000D22661E08DE00E9401054090310D5090C9
:103BC000320D6090330D7090340D20E030E040E80D
:103BD0005FE3C301B2010E94C72F18160CF0BDC0ED
:103BE0008090350D9090360DA090370DB090380D27
:103BF00020E030E040E85FE3C501B4010E94C72F38
:103C000018160CF0AAC0C090390DD0903A0DE09073
:103C10003B0DF0903C0D20E030E040E85FE3C70151
:103C2000B6010E94C72F18160CF097C06091270D9F
:103C300070E090E080E00E94572C20E030E04FE7F9
:103C400053E40E94482E20E030E040E752E40E9416
:103C5000B62C0E94B02E162F6091260D70E090E0D9
:103C600080E00E94572C20E030E04FE753E40E94B0
:103C7000482E20E030E040E752E40E94B62C0E943B
:103C8000B02E062F6091250D70E090E080E00E943C
:103C9000572C20E030E04FE753E40E94482E20E00C
:103CA00030E040EC51E40E94B62C20E030E048EADD
:103CB00051E40E94CA2D0E94B02E6DAF1E861D8653
:103CC000C301B2010E94B52EC1010E944912E4E075
:103CD000F0E0FE87ED87C501B4010E94B52EC10159
:103CE0000E94491228E030E03E872D87C701B601C7
:103CF0000E94B52EC1010E9449124AE050E05E8741
:103D00004D876DADC1010E9449128CE090E09E8705
:103D10008D87602FC1010E9449128EE090E09E873E
:103D20008D87612FC1010E9449124092000250927A
:103D30000102609202027092030280920402909249
:103D40000502A0920602B0920702C0920802D09229
:103D50000902E0920A02F0920B0280915909811146
:103D600027C081E08093590980912A0D90E06091ED
:103D7000290D5091280D3091270D4091260D20914D
:103D8000250D84369105BCF1825B97408093C5096F
:103D90006093C4095093C30981E0820F8093C109E5
:103DA0004093C0093093BF090E9469020E94360AFD
:103DB0008091210D9091220DA091230DB091240DA1
:103DC000892B8A2B8B2BD9F480915A09811135C10B
:103DD0000E94B50528EC30E040E050E00E94802DC4
:103DE000653671058105910508F42AC161E08DE011
:103DF0000E94010517C04E96C9CF60E093CD0E9486
:103E0000B5050091210D1091220D2091230D3091C7
:103E1000240D601B710B820B930B6131774281057E
:103E2000910590F68CE0E0E0F2E0D10101900D9276
:103E30008A95E1F78CE0F101DE01119601900D9277
:103E40008A95E1F78CE0FE013196AFE5BBE0019089
:103E50000D928A95E1F7E0905D0BF0905E0B88E79C
:103E60009AE00E949D03181619060CF0EEC0D0903F
:103E70008509D110EFC088E79AE00E947B039091FA
:103E80008409992309F4FDC090918309E92FF0E09A
:103E9000ED59F64F833209F4EBC080839F5F903277
:103EA00008F0D0C0909383098091920981119CC041
:103EB0000E94DE04892B09F09DC080908E099090AD
:103EC0008F09A0909009B0909109F4EF8F0EF1E066
:103ED0009F1EA11CB11C0E94B50586169706A80658
:103EE000B90608F087C00E94B50560938E097093EB
:103EF0008F09809390099093910981E080939209B2
:103F000080910C0290910D0201966FE070E00E948A
:103F10001E3090930D0280930C0223E0880F991FAE
:103F20002A95E1F7FC01EF5CFD4F3081F1801281B1
:103F30004381832F9F2DA12FB42F80938A099093C3
:103F40008B09A0938C09B0938D09248175816681BA
:103F50005781822F972FA62FB52F80938609909394
:103F60008709A0938809B0938909032F832F9F2D78
:103F7000A12FB42F898F9A8FAB8FBC8F422F822FA6
:103F8000972FA62FB52F8D8F9E8FAF8FB8A31A8D29
:103F90002B8D3C8D5E8D6F8D78A18BE59BE00E9413
:103FA000231060910C0270910D02CE01C7960E9401
:103FB0003F1165EC78E0CE01C1960E94E710BE018A
:103FC000695C7F4FCE01C1960E946A110E94B00DBC
:103FD000CE01C1960E949B11CE01C7960E949B11F3
:103FE00080919209882331F00E94DE04019711F438
:103FF0001092920911E00FE18BED99E00E949D0370
:104000002091B409181619060CF0F9C42111F9C44D
:104010008BED99E00E947B039091B309E92FF0E0CA
:10402000ED56F64F8A3009F4E4C480839F5F9032E6
:1040300008F4DCC40093B309DFCF10925A09F2CE22
:1040400060E0D5CE8FE180938309D0908509DD2093
:1040500009F42ACF80916309873401F580916409BE
:104060008235B1F40E948B0F10928509D12C1CCFA0
:104070001082109284091092830981E0809385094F
:10408000E4CF8A3309F010CF81E080938409DDCF3B
:10409000843409F0A2C40E94EB0EE6CF8135F9F416
:1040A00088E0EEE7FBE0DE01919601900D928A95A3
:1040B000E1F788E0FE01B196DE01999601900D923C
:1040C0008A95E1F709A51AA52BA53CA54DA55EA5E6
:1040D0006FA578A98BE59BE00E942310C5CF8D3496
:1040E00099F580916409833509F077C46FE774E02E
:1040F00088E79AE00E94F40D61E874E088E79AE0AE
:104100000E94C40D00915B0910915C0920915D092A
:1041100030915E0940915F09509160096091610999
:10412000709162098BE59BE00E942310EA94EF28CE
:1041300041F481E080936D0B10928509DD24D394C6
:10414000B3CE10926D0B90CF833509F0ADC6809140
:104150006409823709F0ACC06FE273E088E79AE047
:104160000E94F40D80916609082E000C990BC097EF
:104170002AE0289F7001299FF00C112460916709A3
:10418000062E000C770B60537109E60EF71E809126
:104190006909082E000C990BC097289F6001299F80
:1041A000D00C112460916A09062E000C770B605325
:1041B0007109C60ED71E80916C09082E000C990B50
:1041C000C097289F8001299F100D112460916D09CF
:1041D000062E000C770B60537109060F171F88E736
:1041E0009AE00E94A00D6FE874E088E79AE00E94D0
:1041F000C40D60918A0970918B0980918C0990910E
:104200008D090E94A30DB601DD0C880B990B0E944D
:10421000572C20E030E040E752E40E94482E4B014A
:104220005C01B701FF0C880B990B0E94572C9B0176
:10423000AC01C501B4010E94CA2D6B017C01B8011B
:10424000110F880B990B0E94572C20E030E041E6BB
:1042500055E40E94482E9B01AC01C701B6010E94A3
:10426000CA2D20E030E040E751E40E94B62C609374
:104270008A0970938B0980938C0990938D090E9411
:10428000A30D80918A0990918B09A0918C09B0911E
:104290008D0980935B0990935C09A0935D09B093AD
:1042A0005E098FEF9FEF90930D0280930C02DCCE9E
:1042B000843609F0E8C06FE273E088E79AE00E9474
:1042C000F40D80916609AA24A394B12C8B3219F0C5
:1042D000AA24AA94BA2C80916709082E000C990B85
:1042E000C0972AE0289F8001299F100D112460911A
:1042F0006809062E000C770B60537109060F171F13
:1043000080916A09082E000C990BC097289F7001B4
:10431000299FF00C112460916B09062E000C770B7D
:1043200060537109E60EF71E80916D09082E000C8E
:10433000990BC097289F6001299FD00C1124609190
:104340006E09062E000C770B60537109C60ED71E3E
:1043500088E79AE00E94A00D6BE974E088E79AE094
:104360000E94C40D60918609709187098091880927
:10437000909189090E94A30DB601DD0C880B990B61
:104380000E94572C20E030E041E655E40E94482E80
:104390002B013C01B701FF0C880B990B0E94572C95
:1043A00020E030E040E752E40E94482E9B01AC013F
:1043B000C301B2010E94CA2D6B017C01B801110F2B
:1043C000880B990B0E94572C9B01AC01C701B601C9
:1043D0000E94CA2D6B017C01B501BB0C880B990BA7
:1043E0000E94572C9B01AC01C701B6010E94B62C5C
:1043F000609386097093870980938809909389094F
:104400000E94A30D8091860990918709A091880947
:10441000B091890980935F0990936009A093610925
:10442000B09362093ECF80916409823509F0D5C20C
:10443000809165098B3409F0D0C28091660981337F
:1044400081F481E080936C0B62E070E08DE59BE08D
:104450000E94D90D68EA74E088E79AE00E94C40DD2
:104460006BCE803309F000CE10926C0B61E070E0EF
:104470008DE59BE00E94D90D69EB74E088E79AE036
:104480000E94C40DF1CD843509F0A7C28091650961
:10449000803509F0A2C280916609813359F460E049
:1044A00088E30E94010560E086E20E9401056BEC52
:1044B00074E0E4CF803309F0D7CD61E088E30E9457
:1044C000010561E086E20E9401056FEF74E0D6CF3E
:1044D000EE24E394F12C80916809813409F04AC0FC
:1044E000B7010F2C000C880B990B0E94572C2B0145
:1044F0003C01AC019B0160918A0970918B0980910C
:104500008C0990918D090E94CA2D60938A0970933D
:104510008B0980938C0990938D090E9447025B015F
:104520006C01298F3A8F4B8F5C8F6D8FBE8E8F8F72
:10453000D8A2A3019201698D7A8D8B8D9C8D0E94EA
:10454000CA2D062FAB01BC01498F5A8F6B8F7C8F10
:104550001A8D2B8D3C8DA501B6018BE59BE00E9449
:1045600023106FE673E0EA94EF2809F487CF63E83D
:1045700073E084CF843409F077CDB7010F2C000CA1
:10458000880B990B0E94572C4B015C01AC019B01DD
:1045900060918609709187098091880990918909B5
:1045A0000E94CA2D609386097093870980938809B9
:1045B000909389090E94470289016A01298F1A8F05
:1045C0004B8FDC8E6D8F7E8F8F8F98A3A50194010A
:1045D0006D8D7E8D8F8D98A10E94CA2D462F4B0127
:1045E0005C018D8E9E8EAF8EB8A296015E8D6F8D12
:1045F00078A18BE59BE00E94231067E973E0EA94C1
:10460000EF2809F43BCF6DEA73E038CF883451F4DA
:1046100081E080936C0B62E070E08DE59BE00E948E
:10462000D90D22CD843409F057C0809167098D34AB
:1046300009F01DC161E088E30E94010561E086E2A6
:104640000E94010569E775E088E79AE00E94F40D91
:1046500080916809082E000C990BC0974AE0489F8A
:104660009001499F300D112400916909002E000C22
:10467000110B00531109020F131FB801012E000C7A
:10468000880B990B17FF24C00E94A70C88E79AE0BB
:104690000E94A00D88EE93E0089FB001099F700D65
:1046A000189F700D1124072E000C880B990B0E9487
:1046B000840560E975E088E79AE00E94C40D60E037
:1046C00088E30E94010560E086E20E940105CCCCEF
:1046D0004AE00E94620CDACF873409F0C5CC8091A1
:1046E0006709803509F0C0CC80916809833509F0ED
:1046F000BBCC6BE975E088E79AE00E94C40D68EADC
:1047000075E088E79AE00E94F40D8091210D909168
:10471000220DA091230DB091240D892B8A2B8B2B78
:10472000A1F00E94B5050091210D1091220D20915C
:10473000230D3091240D601B710B820B930B6131A3
:1047400077428105910508F48FC067EC73E088E734
:104750009AE00E94C40D68EB75E088E79AE00E9439
:10476000F40D8091200D63EC73E0811102C067ECC1
:1047700073E088E79AE00E94C40D68EC75E088E772
:104780009AE00E94F40D60912C0DCE0149960E9492
:10479000D916CE0149960E94B00DCE0149960E94CD
:1047A0009B1168ED75E088E79AE00E94F40D609136
:1047B0002B0DCE0149960E94D916CE0149960E9432
:1047C000B00DCE0149960E949B1168EE75E088E716
:1047D0009AE00E94F40D4091310D5091320D60919C
:1047E000330D7091340DCE0149960E940217CE010F
:1047F00049960E94B00DCE0149960E949B1168EF28
:1048000075E088E79AE00E94F40D4091350D5091D3
:10481000360D6091370D7091380DCE0149960E948A
:104820000217CE0149960E94B00DCE0149960E9412
:104830009B1168E076E088E79AE00E94F40D4091D1
:10484000390D50913A0D60913B0D70913C0DCE01A8
:1048500049960E940217CE0149960E94B00DCE01E2
:1048600049960E949B1100CC63EC73E070CF8335B6
:1048700009F0FACB80916809803509F0F5CB68E141
:1048800076E088E79AE00E94C40D0E94F50D62E48C
:1048900076E0F4CD883409F0A0C0809164098C34AE
:1048A00009F09BC080916509803509F096C06AE4E3
:1048B00076E088E79AE00E94C40D69E676E088E732
:1048C0009AE00E94C40D62E876E088E79AE00E94D0
:1048D000C40D67E976E088E79AE00E94C40D61EDB7
:1048E00076E088E79AE00E94C40D6CE177E088E703
:1048F0009AE00E94C40D61E577E088E79AE00E94A3
:10490000C40D69E677E088E79AE00E94C40D6DE087
:1049100070E0CE0149960E943F1160E877E0CE0139
:10492000C1960E94E710BE01675E7F4FCE01C1961F
:104930000E946A118C01DC011496ED90FC90BBE1A1
:10494000EB0EF11CB7010E94AD10811135C0C801FA
:104950000E94D510F801448155816081718188E7FA
:104960009AE00E942603CE01C1960E949B11CE01BF
:1049700049960E949B1165EA77E088E79AE00E94D9
:10498000C40D6DEC77E088E79AE00E94C40D65EFF6
:1049900077E088E79AE00E94C40D6FE178E088E74D
:1049A0009AE00E94C40D69E478E088E79AE00E94EA
:1049B000C40D66E778E062CDF80120813181848101
:1049C000958169E877E0820F931F0E948232D801B7
:1049D0001596FC92EE921497BDCF6EEA78E088E7C8
:1049E0009AE00E94C40D63E679E048CD9093B30944
:1049F00003CB10821092B3091093B409FDCA22238D
:104A000069F080919309833709F062C0809194091D
:104A10008F3311F40E94F50D1092B409DD2049F096
:104A200081E080936C0B62E070E08DE59BE00E947A
:104A3000D90D80915D0B90915E0B892B09F497C184
:104A400060E086E20E94010560E088E30E940105C3
:104A50000E94B5050091B7091091B8092091B909D4
:104A60003091BA09601B710B820B930B643F71404C
:104A70008105910520F480910E028823A1F0109207
:104A80000E020E94B5056093B7097093B809809330
:104A9000B9099093BA098BE59BE00E9462128BE5FD
:104AA0009BE00E94980B89E89DE00E94D00985E474
:104AB0009DE00E94D0098091B5099091B6090196B8
:104AC0009093B6098093B5090E9451040C94541B2D
:104AD000813609F0A1CF809194098A3709F0A4C0EA
:104AE00080919609082E000C990BC09724E6289F08
:104AF000B001299F700D112480919709082E000C98
:104B0000990BC0974AE0489F9001499F300D1124AE
:104B1000620F731F80919809082E000C990BC097A3
:104B2000680F791F072E000C880B990BC0D64B011C
:104B30005C0160919909062E000C770B6053710996
:104B4000072E000C880B990BB2D62DEC3CEC4CECEC
:104B50005DE30CD79B01AC01C501B4010E94CA2DD5
:104B60004B015C0160919A09062E000C770B605393
:104B70007109072E000C880B990B99D62AE037EDA6
:104B800043E25CE3F3D69B01AC01C501B4010E9492
:104B9000CA2D4B015C0160919B09062E000C770B1E
:104BA00060537109072E000C880B990B80D62FE6F5
:104BB00032E143E85AE3DAD69B01AC01C501B40106
:104BC000E9D74B015C01809195098D3221F4B7FA48
:104BD000B094B7F8B09488E79AE00E94A00D63E91A
:104BE00079E088E79AE00E94C40D6AED78E088E7F2
:104BF0009AE00E94C40DC501B4010E94A30D0E9459
:104C00004702AB016D8F5E8F8F8F98A3082D898E21
:104C10009A8EAB8EBC8E1A8D2B8D3C8DBC018BE594
:104C20009BE00E942310F8CE8C3609F0F5CE8091DF
:104C30009609082E000C990BC09724E6289FB00116
:104C4000299F700D112480919709082E000C990B53
:104C5000C0974AE0489F9001499F300D1124620F90
:104C6000731F80919809082E000C990BC097680F4C
:104C7000791F072E000C880B990B19D64B015C018C
:104C800060919909062E000C770B60537109072E6D
:104C9000000C880B990B0BD62DEC3CEC4CEC5DE337
:104CA00065D69B01AC01C501B40174D74B015C0111
:104CB00060919A09062E000C770B60537109072E3C
:104CC000000C880B990BF3D52AE037ED43E25CE347
:104CD0004DD69B01AC01C501B4015CD74B015C0111
:104CE00060919B09062E000C770B60537109072E0B
:104CF000000C880B990BDBD52FE632E143E85AE331
:104D000035D69B01AC01C501B40144D74B015C0110
:104D1000809195098D3221F4B7FAB094B7F8B09428
:104D200088E79AE00E94A00D63E979E088E79AE0BD
:104D30000E94C40D6BEE78E088E79AE00E94C40DF3
:104D4000C501B4010E94A30D0E944702842F298F40
:104D50003A8F4B8F5C8F482D8D8E9E8EAF8EB8A272
:104D60008901282F352F5E8D6F8D78A158CF61E096
:104D700086E20E94010561E068CE2F3011F00C94AC
:104D8000AD1DE091F60CF091F70CDF010D900020C5
:104D9000E9F7CD0106978E179F0711F00C94D51DEA
:104DA000CF0102966BE774E00E947932892B11F0F3
:104DB0000C94AD1D8091F80C9091F90C52D1BC016E
:104DC000990F880B990B73D507E21DE026E23DE0B1
:104DD00045E25DE00E940A068091FA0C9091FB0C7E
:104DE0003DD16093350D7093360D8093370D9093C0
:104DF000380DE091FC0CF091FD0C40810E94C10542
:104E00006093350D7093360D8093370D9093380D68
:104E10008091FE0C9091FF0C21D16093390D70931D
:104E20003A0D80933B0D90933C0DE091000DF09175
:104E3000010D40810E94C1056093390D70933A0DB8
:104E400080933B0D90933C0D8091020D9091030D4A
:104E500008D180932B0D91E0811101C090E09093D7
:104E6000200D8091040D9091050DFBD080932C0DA9
:104E70008091060D9091070DF1D060932D0D7093E8
:104E80002E0D80932F0D9093300D8091080D9091F1
:104E9000090DE4D06093310D7093320D8093330D82
:104EA0009093340D0C94AD1D843509F4BCCA843440
:104EB00009F0F0CC80916409823409F08ECD8091A4
:104EC0006509873409F089CD809166098D3409F030
:104ED0009DCB80916709893409F4FACAEE24EA94DB
:104EE000FE2C843409F4F7CAE82E880FFF0820E36B
:104EF000E21AF10866E375E03FE0E316F1040CF016
:104F0000BDCA6BED73E088E79AE00E94C40D64E4CB
:104F100075E088E79AE00E94F40DF701EE0FFF1F9D
:104F2000E35EFD4F6081718188E79AE00E94C40DC5
:104F30006FE475E088E79AE00E94C40D60918A09E9
:104F400070918B0980918C0990918D090E94A30D1D
:104F500060918609709187098091880990918909EB
:104F60000E94A30D65E675E088E79AE00E94C40DF3
:104F7000870143E0000F111F4A95E1F70F5C1D4FB9
:104F8000D801CC9011967C90119712968C90129724
:104F900013969C906C2D772DC4010E94A30DF801EF
:104FA000D480A580B68017816D2D7A2D8B2D912F01
:104FB0000E94A30D8C2D972DD40180938A09909384
:104FC0008B09A0938C09B0938D098D2D9A2DAB2D53
:104FD000B12F8093860990938709A0938809B09395
:104FE00089090C2D8C2D972DD401898F9A8FAB8F29
:104FF000BC8F4D2D8D2D9A2DAB2DB12F8D8F9E8F6A
:10500000AF8FB8A31A8D2B8D3C8D5E8D6F8D78A1DF
:105010008BE59BE00E942310F0920D02E0920C02BF
:1050200023C8EF920F931F93CF93DF93E80134E0EF
:1050300047FD34E1042E000C550B57FF03C051957A
:1050400041955109E32E022F242FAE015AD0CE01F3
:10505000DF91CF911F910F91EF90089566277727E9
:10506000C8C1FC0188279927E89421912032E9F3EF
:10507000293010F02E30C8F32B3239F02D3231F4B4
:10508000689403C01DD0820F911D219120532A30B6
:10509000C8F31EF4909581959F4F08959111D6C342
:1050A000803219F089508550D0F70895BB274A30D7
:1050B00031F4992322F4BDE2909581959F4F09C068
:1050C0007AE0979F902D879F802D910D1124089550
:1050D000BB27FB015527AA27880F991FAA1FA417D2
:1050E00010F0A41B83955051B9F7A05DAA3308F0C6
:1050F000A95DA193009779F7B111B1931192CB01FA
:10510000C0C38F929F92AF92BF92CF92DF92EF92E5
:10511000FF920F931F93CF93DF9300D000D000D066
:10512000CDB7DEB76A01F22EB02E102FFBE3AF2E03
:10513000A01608F41BE31F5F012F27E0AE014F5FAD
:105140005F4FACD2BC018981982F9970913009F4DE
:105150004EC09BE2E1FC04C09E2D9170E0FC49C072
:105160005E2D5071E82FE87083FF55C084E09111E7
:1051700001C083E0EF2DE81B8F1508F0E0E0D601B9
:105180008E2F20E25523C9F1992329F0D6019C9353
:10519000C60101966C0196012D5F3F4FE2FE33C0C0
:1051A0008EE4D6018C9391E411969C9311971296FC
:1051B0008C93D9018E2F90E281112AC0E20FF32F38
:1051C000F11D10828EEF9FEF29960FB6F894DEBF87
:1051D0000FBECDBFDF91CF911F910F91FF90EF9048
:1051E000DF90CF90BF90AF909F908F9008959DE2F9
:1051F000B7CF90E2B5CF2D9381508111FCCFCE0E69
:10520000D11CE0E0C1CF8EE6D6018C9391E6CCCFE5
:105210009D938150D1CF482F447082FF3DC084E0E0
:10522000911101C083E08F1510F4EF2DE81BD6011A
:105230008E2F20E2552309F1992329F0D6019C9362
:10524000C60101966C0196012D5F3F4FE2FE1BC027
:1052500089E4D6018C938EE411968C93119786E4A1
:1052600012968C93D9018E2F90E2882309F4A6CF51
:105270009D938150FACF2D9381508111FCCFCE0E9A
:10528000D11CE0E0D9CF89E6D6018C938EE6119649
:105290008C93119786E6E4CF9B0177FF02C030E044
:1052A00020E0A1E0B0E0911102C0B0E0A0E0F9017F
:1052B0003196AE0FBF1F8B2C912CBB2009F461C01F
:1052C0005401EFEFAE1ABE0AAA0DBB1DFA161B065B
:1052D00019F014F04F2D4A1B511188C0E3FC59C03E
:1052E0007601A42FB0E2A1114FC0C40ED11C9923A6
:1052F00009F45BC040E0D6011196F60190836D0180
:10530000552309F448C0012F060F9A81582F507178
:1053100084FF03C0913309F4015010160CF047C00C
:10532000093008F008E0EEE2FE2E5B01A01AB10899
:1053300085019194819491082F3F320729F4D60179
:10534000FC92F60131966F016217730794F1021710
:1053500013077CF5DB01A21BB30BAA24A394B12C89
:10536000AC0EBD1EAA0DBB1D11968C9121503109AA
:10537000D601119628153905F4F0F60180836D01E8
:10538000DBCFB12CA12CA0CFF701B1937F01A150AD
:10539000AACF9111B0CFD601942F50E302C05D93F4
:1053A00091509111FCCFC40ED11C40E0ACCF01E074
:1053B000BACF80E3DBCF6217730731F4963388F4FA
:1053C000953311F4552369F0F6018083FD01842F94
:1053D00090E2811108C0A40FB11D1C9290E080E002
:1053E000F3CE81E3F1CF91938150F3CF911183CF2D
:1053F0008ACF8F929F92AF92BF92CF92DF92EF921D
:10540000FF920F931F93CF93DF935C017B01611594
:10541000710519F0DB018D939C9385010F5F1F4F80
:10542000F501D0818D2F90E039DE6C01892BA9F533
:10543000DD32A9F50F5F1F4FD5011196DC91C1E058
:105440005801F1E0AF1AB10843E050E066E471E0C2
:10545000C501FFD1892B61F5680182E0C80ED11C1E
:1054600045E050E061E471E0C601F3D1892B21F4FD
:10547000680197E0C90ED11CE114F10419F0D701BD
:10548000CD92DC9260E070E080E89FEFC111F9C03E
:1054900060E070E080E89FE7F4C05801BECFDB32E7
:1054A00029F485010E5F1F4FF501D181C0E0C8CFFF
:1054B00043E050E06EE371E0C501CBD1892BE9F008
:1054C000F80110E000E020E030E0A9015F01B0ED5C
:1054D0008B2E8D0E89E08815C0F19C2E689491F872
:1054E0008C2F8870C2FF16C0811102C00F5F1F4F42
:1054F0003196D501DC91C92DE9CFE114F10429F0F1
:105500000E5F1F4FF7011183008360E070E080ECB5
:105510009FE7B7C0882311F001501109A5E0B0E062
:1055200011D39B01AC01220F331F441F551F280DBF
:10553000311D411D511D283999E93907490799E164
:105540005907B0F2C6609C2ED3CFAEEF8A1206C0C8
:10555000C3FD3CC09C2E689493F8CACFDF7DD53440
:10556000A9F580818D3239F4C061DF011296818105
:1055700062E070E006C0DF018B32C1F3119661E09A
:1055800070E080535D01A61AB70A8A30F8F4E0E8AB
:10559000CE16ECE0DE065CF4B601660F771F660FF0
:1055A000771FC60ED71ECC0CDD1CC80ED11C5D01AA
:1055B000FFEFAF1ABF0A8C9180538A3098F1C4FF75
:1055C00003C0D194C194D1080C0D1D1DC1FF09C0A9
:1055D000E114F10431F081E0A81AB108D701AD92CD
:1055E000BC92CA01B90161D1C370C33009F49058AB
:1055F0004B015C0120E030E0A90153D1882309F47C
:105600003EC0C5E7D1E017FF05C01195019511090E
:10561000CDE5D1E06E01B8E1CB1AD10880E2E82EE9
:10562000F12C0EC0D501B3CFFE01259135914591E6
:1056300054910E191F09C501B40198D14B015C01A9
:10564000D501C4010E151F057CF72497F594E79446
:10565000CC16DD06A9F78A2F880F8B2F881F8F3F66
:1056600041F020E030E0A901C501B4011AD1811157
:1056700006C082E290E09093CE0D8093CD0DC501DF
:10568000B401DF91CF911F910F91FF90EF90DF90C8
:10569000CF90BF90AF909F908F900895283008F0E2
:1056A00027E03327DA01990F311D87FD91600096BD
:1056B0006105710539F432602E5F3D9330E32A9520
:1056C000E1F708959F3F30F080387105610509F0DA
:1056D0003C5F3C5F3D93913008F08068911DDF9303
:1056E000CF931F930F93FF92EF92192F987F969568
:1056F000E92F96959695E90FFF27ED52FE4F9927D2
:105700003327EE24FF24A701E701059008940794AE
:1057100028F4360FE71EF81E491F511D660F771F2C
:10572000881F991F0694A1F70590079428F4E70EA7
:10573000F81E491F561FC11D770F881F991F661F2E
:105740000694A1F70590079428F4F80E491F561FF8
:10575000C71FD11D880F991F661F771F0694A1F7D9
:105760000590079420F4490F561FC71FD81F990FA3
:10577000661F771F881F0694A9F7849110951770EC
:1057800041F0D695C79557954795F794E7941A95A4
:10579000C1F7E9E7F1E068941590159135916591AD
:1057A000959105907FE27395E118F10A430B560B32
:1057B000C90BD009C0F7E10CF11E431F561FC91FCA
:1057C000D01D7EF4703311F48A95E6CFE894015031
:1057D00030F0080F0AF40027021708F4202F239551
:1057E000022F7A3328F079E37D932A95E9F710C0E8
:1057F0007D932A9589F60694979567953795179521
:105800001794E118F10A430B560BC90BD00998F015
:1058100023957E9173957A3308F070E37C9320137F
:10582000B8F77E9170617D9330F0839571E37D933D
:1058300070E32A95E1F71124EF90FF900F911F91EB
:10584000CF91DF91992787FD909508959927882713
:105850000895FB01DC014150504088F08D91813466
:105860001CF08B350CF4805E659161341CF06B3557
:105870000CF4605E861B611171F3990B0895881B0F
:10588000FCCFDC01FC01672F71917723E1F73297A0
:1058900004C07C916D9370836291AE17BF07C8F30B
:1058A000089540D008F481E00895E89409C097FB7A
:1058B0003EF490958095709561957F4F8F4F9F4FE7
:1058C0009923A9F0F92F96E9BB279395F69587952B
:1058D00077956795B795F111F8CFFAF4BB0F11F4EE
:1058E00060FF1BC06F5F7F4F8F4F9F4F16C0882395
:1058F00011F096E911C0772321F09EE8872F762FCB
:1059000005C0662371F096E8862F70E060E02AF00B
:105910009A95660F771F881FDAF7880F96958795F7
:1059200097F90895990F0008550FAA0BE0E8FEEFCC
:1059300016161706E807F907C0F012161306E40753
:10594000F50798F0621B730B840B950B39F40A264C
:1059500061F0232B242B252B21F408950A2609F42A
:10596000A140A6958FEF811D811D08950BD078C0B1
:1059700069D028F06ED018F0952309F05AC05FC0A6
:105980001124A2C07ED0A0F3959FD1F3950F50E0D3
:10599000551F629FF001729FBB27F00DB11D639FE1
:1059A000AA27F00DB11DAA1F649F6627B00DA11D87
:1059B000661F829F2227B00DA11D621F739FB00D2D
:1059C000A11D621F839FA00D611D221F749F33279D
:1059D000A00D611D231F849F600D211D822F762F36
:1059E0006A2F11249F5750408AF0E1F088234AF033
:1059F000EE0FFF1FBB1F661F771F881F915050407F
:105A0000A9F79E3F510570F014C05EC05F3FECF3F4
:105A1000983EDCF3869577956795B795F795E7956A
:105A20009F5FC1F7FE2B880F911D9695879597F97B
:105A3000089597F99F6780E870E060E008959FEF10
:105A400080EC089500240A94161617061806090615
:105A5000089500240A9412161306140605060895E4
:105A6000092E0394000C11F4882352F0BB0F40F46C
:105A7000BF2B11F460FF04C06F5F7F4F8F4F9F4FAC
:105A8000089557FD9058440F551F59F05F3F71F02E
:105A90004795880F97FB991F61F09F3F79F0879595
:105AA0000895121613061406551FF2CF4695F1DF1E
:105AB00008C0161617061806991FF1CF86957105AE
:105AC000610508940895E894BB2766277727CB01E2
:105AD00097F90895F999FECF92BD81BDF89A99275B
