:100000000C946D000C9495000C9495000C94950044
:100010000C9495000C9495000C9495000C9495000C
:100020000C9495000C9495000C9495000C949500FC
:100030000C9495000C9495000C9495000C949500EC
:100040000C9429030C9495000C9495000C94950045
:100050000C9495000C9495000C9495000C949500CC
:100060000C9495000C94950066016C017201780166
:100070007E0184018A01F302FA02010308030F03DF
:100080002603160326031D030000000800020100DA
:100090000003040700000000000000000000000052
:1000A000250028002B0000000000240027002A0063
:1000B000040404040404040402020202020203030E
:1000C0000303030301020408102040800102040816
:1000D0001020010204081020BD0311241FBECFEF21
:1000E000D8E0DEBFCDBF11E0A0E0B1E0E6E4F1E191
:1000F00002C005900D92AA31B107D9F721E0AAE11B
:10010000B1E001C01D92A736B207E1F710E0CDE6DD
:10011000D0E004C02197FE010E947908CC36D107B7
:10012000C9F70E9473030C94A1080C94000090E09E
:10013000FC01EC53FF4F2491FC01E055FF4F8491EB
:10014000882399F090E0880F991FFC01EA55FF4F32
:10015000A591B491FC01E456FF4F859194918FB71E
:10016000F894EC91E22BEC938FBF089590E0FC01A2
:10017000E857FF4F2491FC01EC53FF4F3491FC01F1
:10018000E055FF4FE491EE2309F43CC0222339F1FE
:10019000233091F038F42130A9F0223001F584B5F4
:1001A0008F7D12C0273091F02830A1F02430B9F4AF
:1001B000809180008F7D03C0809180008F77809335
:1001C00080000DC084B58F7784BD09C08091B000D8
:1001D0008F7703C08091B0008F7D8093B000F0E0F6
:1001E000EE0FFF1FE456FF4FA591B4919FB7F8940F
:1001F000611104C08C913095382302C0EC913E2BE4
:100200003C939FBF0895CF93DF93FC01238122236A
:1002100029F1EC0184810E9497008D810E94970052
:100220008B81843011F0883029F48E810E949700F0
:100230008F8105C0833011F0863019F48E810E94C1
:1002400097008FA58F3F51F00E9497006EA581E027
:1002500068278FA5DF91CF910C94B600DF91CF91E5
:100260000895CF93DF93FC0123812223A1F0EC01B9
:100270000190F081E02D0480F581E02D60E009958A
:100280008FA58F3F41F00E9497006EA58FA5DF914B
:10029000CF910C94B600DF91CF910895CF93DF9367
:1002A0004770552766277727FA013197EC01A88117
:1002B000B981E730F10520F4EC5CFF4F0C9479082C
:1002C0001496ED91FC91159761E029C01496ED917B
:1002D000FC91159765E023C01496ED91FC9115975C
:1002E00064E01DC01496ED91FC91159766E017C06F
:1002F0001496ED91FC91159762E011C01496ED9162
:10030000FC9115976AE00BC01496ED91FC9115973E
:1003100068E005C01496ED91FC91159769E0DF91B6
:10032000CF910994CF93DF93EC01CB01BA0126E082
:1003300030E040E050E00E945A08623071058105CB
:10034000910559F18CF46115710581059105F1F064
:100350006130710581059105C1F5E881F98104805D
:10036000F581E02D65E02DC06430710581059105B2
:1003700011F1D4F0653071058105910531F5E88101
:10038000F9810480F581E02D66E01BC0E881F981E8
:100390000480F581E02D64E014C0E881F9810480D7
:1003A000F581E02D61E00DC0E881F9810480F581DF
:1003B000E02D63E006C0E881F9810480F581E02D3D
:1003C00062E0CE01DF91CF910994DF91CF91089542
:1003D0004370552766277727DC01ED91FC91048057
:1003E000F581E02D423051056105710571F0433012
:1003F00051056105710559F04130510561057105DF
:1004000011F065E005C066E003C06AE001C069E084
:100410000994CF93DF93EC01CB01BA0123E030E0E4
:1004200040E050E00E945A08613071058105910555
:1004300081F0623071058105910591F0672B682B81
:10044000692BC1F4E881F9810480F581E02D64E035
:100450000DC0E881F9810480F581E02D61E006C0DE
:10046000E881F9810480F581E02D62E0CE01DF9121
:10047000CF910994DF91CF91089543705527662756
:100480007727DC01ED91FC910480F581E02D42306D
:1004900051056105710571F0433051056105710524
:1004A00059F0413051056105710511F062E005C058
:1004B00063E003C061E001C060E00994CF93DF9383
:1004C000EC01E881F9810480F581E02D8A818111B8
:1004D00002C060E001C062E0CE010995E881F981C7
:1004E0000480F581E02D8A81811102C061E001C0A4
:1004F00063E0CE0109958CA59DA58230910538F069
:10050000880F991F880F991F05970197F1F7E881C8
:10051000F9810480F581E02D8A81811102C060E0BB
:1005200001C062E0CE01DF91CF910994CF93DF93B8
:10053000EC0120E030E0A9016C897D898E899F89DA
:100540000E94E80718161CF4E8A9F9A902C0EAA954
:10055000FBA9DF91CF910994CF92DF92EF92FF92A6
:100560000F931F93CF93DF93EC019B81943041F065
:10057000983031F0933031F0963021F012E003C022
:1005800014E001C013E02496E12CF12CC62ED12CEE
:1005900001E0C6010E2C02C0959587950A94E2F7FA
:1005A0006C8180FD602789910E94B6008FEFE81A68
:1005B000F80AE11670F3DF91CF911F910F91FF9030
:1005C000EF90DF90CF9008950F931F93DC01139667
:1005D000EC910E2F10E009301105C0F5F801E55C33
:1005E000FF4F0C947908DC01ED91FC910084F185BA
:1005F000E02D29C0DC01ED91FC910284F385E02D12
:1006000022C0DC01ED91FC910484F585E02D1BC036
:10061000DC01ED91FC910684F785E02D14C0DC012E
:10062000ED91FC910088F189E02D0DC0DC01ED9188
:10063000FC910288F389E02D06C0DC01ED91FC916C
:100640000488F589E02D1F910F9109941F910F9156
:1006500008951F920F920FB60F9211242F933F937C
:100660008F939F93AF93BF938091630190916401A7
:10067000A0916501B09166013091620123E0230FE2
:100680002D3720F40196A11DB11D05C026E8230FCA
:100690000296A11DB11D2093620180936301909386
:1006A0006401A0936501B093660180915E01909111
:1006B0005F01A0916001B09161010196A11DB11D82
:1006C00080935E0190935F01A0936001B0936101FC
:1006D000BF91AF919F918F913F912F910F900FBE3E
:1006E0000F901F901895789484B5826084BD84B56E
:1006F000816084BD85B5826085BD85B5816085BD1D
:1007000080916E00816080936E00109281008091D4
:10071000810082608093810080918100816080935C
:100720008100809180008160809380008091B10081
:1007300084608093B1008091B00081608093B000AC
:1007400080917A00846080937A0080917A00826040
:1007500080937A0080917A00816080937A00809102
:100760007A00806880937A001092C100C0E0D0E0E7
:100770002097F1F30E940000FBCF4F925F926F929F
:100780007F928F929F92AF92BF92CF92DF92EF9221
:10079000FF920F931F93CF93DF9384E091E09093A8
:1007A0001B0180931A0181E080931D0110922601A4
:1007B00010922701109228011092290110922A010B
:1007C00010922B0110922C0110922D0110922E01EB
:1007D00010922F011092300110923101812C912C36
:1007E00080E8A82E8FE3B82E8092320190923301D8
:1007F000A0923401B0923501109236011092370167
:10080000109238011092390180923A0190923B0186
:10081000A0923C01B0923D0110923E0110923F0126
:10082000109240011092410181E090E090934701C5
:10083000809346018FEF80934901109242011092FC
:100840004301109244011092450186E380931E01FA
:1008500087E380931F0184E08093200185E08093EB
:1008600021011092480110924E0110924F011092F6
:1008700050011092510110925201109253011092A6
:100880005401109255011092560110925701109286
:1008900058011092590180925A0190925B01A092E6
:1008A0005C01B0925D0110921C0110922201109225
:1008B000230110922401109225018AE191E00E9407
:1008C0000301C0903601D0903701E0903801F090DC
:1008D0003901A5019401C701B6010E948906882348
:1008E00009F499C160914E0170914F0180915001BE
:1008F000909151010E943807A70196010E94ED07CF
:100900000E9400076B017C0160934E0170934F01C0
:10091000809350019093510186E896E6A9E6B9E4E8
:100920008093520190935301A0935401B0935501C9
:100930008092360190923701A0923801B09239012D
:1009400080902A0190902B01A0902C01B0902D0155
:100950008091260190912701A0912801B091290151
:10096000881A990AAA0ABB0A60912E0170912F0178
:1009700080913001909131019B01AC010E94ED0703
:1009800020E030E040E05FE30E94ED070E940007B6
:1009900081149104A104B104F9F462307105810558
:1009A00091050CF08BC010923E0110923F01109205
:1009B00040011092410110922E0110922F011092CD
:1009C00030011092310110924E0110924F0110929D
:1009D0005001109251011FC1181419041A041B046C
:1009E0000CF51C141D041E041F0454F4681579052D
:1009F0008A059B0564F520911C0121115FC027C069
:100A0000C114D104E104F10409F458C06815790552
:100A10008A059B050CF052C080911C01882309F4C3
:100A20004DC03CC01C141D041E041F0414F50027F7
:100A300011279801081919092A093B09601771073C
:100A40008207930724F420911C012223B9F19B0112
:100A5000AC0188279927DC01821B930BA40BB50BF3
:100A600080934E0190934F01A0935001B093510198
:100A700025C0C114D104E104F10401F100271127BC
:100A80009801081919092A093B096017710782079B
:100A90009307A4F480911C01811110C0F094E0949C
:100AA000D094C094C11CD11CE11CF11CC0924E0119
:100AB000D0924F01E0925001F0925101C0904E014E
:100AC000D0904F01E0905001F0905101C114D10439
:100AD000E104F104B1F486E896E6A9E6B9E480936E
:100AE000560190935701A0935801B093590181E0AA
:100AF000181419041A041B040CF080E080931C01E4
:100B00004AC08090560190905701A0905801B09033
:100B10005901A5019401C501B4010E941D062B01D4
:100B20003C01C701B6010E94380720E030E040E8F0
:100B300050E40E94ED0720E030E040E85FE30E94CF
:100B40001D069B01AC01C301B2010E948E069B01F0
:100B5000AC01C501B4010E941C068B01D82FC92F1E
:100B600080905A0190905B01A0905C01B0905D0173
:100B70009401A5010E94E80718161CF44801AD2E47
:100B8000BC2EC401D5018093560190935701A093C8
:100B90005801B09359013FEFC31AD30AE30AF30A8D
:100BA000C0924E01D0924F01E0925001F09251015B
:100BB000C0905601D0905701E0905801F090590133
:100BC000C701B6010E94070760933E0170933F0181
:100BD0008093400190934101A701960160E074E287
:100BE00084E799E40E948E0660932E0170932F0192
:100BF000809330019093310120911C0121110BC091
:100C0000DC01CB01B05880932E0190932F01A0936B
:100C10003001B0933101DF91CF911F910F91FF907F
:100C2000EF90DF90CF90BF90AF909F908F907F908C
:100C30006F905F904F9008955058BB27AA270E944D
:100C400034060C94AE070E94A00738F00E94A70754
:100C500020F039F49F3F19F426F40C949D070EF40C
:100C6000E095E7FB0C949707E92F0E94BF0758F324
:100C7000BA17620773078407950720F079F4A6F581
:100C80000C94E1070EF4E0950B2EBA2FA02D0B016A
:100C9000B90190010C01CA01A0011124FF27591BC1
:100CA00099F0593F50F4503E68F11A16F040A22FC7
:100CB000232F342F4427585FF3CF46953795279538
:100CC000A795F0405395C9F77EF41F16BA0B620B37
:100CD000730B840BBAF09150A1F0FF0FBB1F661F7E
:100CE000771F881FC2F70EC0BA0F621F731F841FC1
:100CF00048F4879577956795B795F7959E3F08F0E7
:100D0000B0CF9395880F08F09927EE0F97958795A8
:100D100008950E94730708F481E008950E94A206D6
:100D20000C94AE070E94A70758F00E94A00740F05D
:100D300029F45F3F29F00C94970751110C94E207B6
:100D40000C949D070E94BF0768F39923B1F35523C4
:100D500091F3951B550BBB27AA27621773078407CE
:100D600038F09F5F5F4F220F331F441FAA1FA9F364
:100D700035D00E2E3AF0E0E832D091505040E69552
:100D8000001CCAF72BD0FE2F29D0660F771F881FB3
:100D9000BB1F261737074807AB07B0E809F0BB0BA6
:100DA000802DBF01FF2793585F4F3AF09E3F5105BA
:100DB00078F00C9497070C94E2075F3FE4F3983EB9
:100DC000D4F3869577956795B795F7959F5FC9F7A3
:100DD000880F911D9695879597F90895E1E0660F24
:100DE000771F881FBB1F621773078407BA0720F09D
:100DF000621B730B840BBA0BEE1F88F7E095089506
:100E00000E9407076894B1110C94E20708950E94AC
:100E1000C70788F09F5798F0B92F9927B751B0F0BE
:100E2000E1F0660F771F881F991F1AF0BA95C9F76E
:100E300014C0B13091F00E94E107B1E008950C9424
:100E4000E107672F782F8827B85F39F0B93FCCF3D7
:100E5000869577956795B395D9F73EF490958095EB
:100E6000709561957F4F8F4F9F4F0895E89409C00B
:100E700097FB3EF490958095709561957F4F8F4FCD
:100E80009F4F9923A9F0F92F96E9BB279395F695E3
:100E9000879577956795B795F111F8CFFAF4BB0F61
:100EA00011F460FF1BC06F5F7F4F8F4F9F4F16C0C5
:100EB000882311F096E911C0772321F09EE8872F4F
:100EC000762F05C0662371F096E8862F70E060E00B
:100ED0002AF09A95660F771F881FDAF7880F969584
:100EE000879597F90895990F0008550FAA0BE0E828
:100EF000FEEF16161706E807F907C0F012161306DC
:100F0000E407F50798F0621B730B840B950B39F41B
:100F10000A2661F0232B242B252B21F408950A2681
:100F200009F4A140A6958FEF811D811D089597F9C1
:100F30009F6780E870E060E008959FEF80EC08957F
:100F400000240A94161617061806090608950024A8
:100F50000A9412161306140605060895092E039422
:100F6000000C11F4882352F0BB0F40F4BF2B11F496
:100F700060FF04C06F5F7F4F8F4F9F4F089557FDF5
:100F80009058440F551F59F05F3F71F04795880FF7
:100F900097FB991F61F09F3F79F08795089512168E
:100FA00013061406551FF2CF4695F1DF08C016163A
:100FB00017061806991FF1CF8695710561050894EB
:100FC0000895E894BB2766277727CB0197F9089502
:100FD0000E94730708F48FEF08950E9400080C9494
:100FE000AE070E94A00738F00E94A70720F09523C3
:100FF00011F00C9497070C949D0711240C94E207B0
:101000000E94BF0770F3959FC1F3950F50E0551FE5
:10101000629FF001729FBB27F00DB11D639FAA274D
:10102000F00DB11DAA1F649F6627B00DA11D661F9C
:10103000829F2227B00DA11D621F739FB00DA11DBD
:10104000621F839FA00D611D221F749F3327A00D77
:10105000611D231F849F600D211D822F762F6A2F13
:1010600011249F5750409AF0F1F088234AF0EE0F78
:10107000FF1FBB1F661F771F881F91505040A9F7A5
:101080009E3F510580F00C9497070C94E2075F3F58
:10109000E4F3983ED4F3869577956795B795F795E1
:1010A000E7959F5FC1F7FE2B880F911D9695879559
:1010B00097F90895052E97FB1EF400940E9471087D
:1010C00057FD07D00E947F0807FC03D04EF40C9414
:1010D000710850954095309521953F4F4F4F5F4F88
:1010E000089590958095709561957F4F8F4F9F4F94
:1010F0000895EE0FFF1F0590F491E02D0994A1E2F1
:101100001A2EAA1BBB1BFD010DC0AA1FBB1FEE1F81
:10111000FF1FA217B307E407F50720F0A21BB30BCC
:10112000E40BF50B661F771F881F991F1A9469F748
:1011300060957095809590959B01AC01BD01CF01A4
:061140000895F894FFCFB2
:101146000000000031010301AC02E40296025E02D7
:0A1156003D020902E80192014E017A
:00000001FF
