:100000000C947E010C94AF010C94AF010C94AF01E1
:100010000C94AF010C94AF010C94AF010C94AF01A0
:100020000C94AF010C94AF010C94AF010C94AF0190
:100030000C94AF010C94AF010C94AF010C94AF0180
:100040000C94AF010C94AF010C94AF010C94AF0170
:100050000C94AF010C94AF010C94AF010C94040804
:100060000C94AF010C9478080C944E080C94AF01DA
:100070000C94AF010C94AF010C94AF010C94AF0140
:100080000C94AF010C94AF010C94AF010C94AF0130
:100090000C94AF010C94AF010C94AF010C94AF0120
:1000A0000C94AF010C94AF010C94AF010C94AF0110
:1000B0000C94AF010C94AF010C94AF010C94AF0100
:1000C0000C94AF010C94AF010C94AF010C94AF01F0
:1000D0000C94AF010C94AF010C94AF010C94AF01E0
:1000E0000C94AF014C034F033E03420346038603C7
:1000F000530357035D03610365036B036F037303CE
:10010000860379037D0381033E05420546054A05C2
:100110004E0552055605C006C706CE06D506DC06B6
:10012000F406E306F406EA060C94D5060C9486035E
:100130000C9477060C94DA040C9408060C94C00610
:100140000C945D030C9465030C9425050C94B30585
:100150000C9453030C9408050C94AF060C94C7063A
:100160000C9442030C944E050C94FA030C94D8039F
:100170000C946F030C949B030C94E3060C947D0386
:100180000C9481030C94EC030C9429060C94320417
:100190000C94DC060C94AE080C943E030C944205BF
:1001A0000C94D4050C9446050C9446030C946106FB
:1001B0000C9456050C9457030C943E050C944A0578
:1001C0000C946B030C94F4060C9473030C944C0382
:1001D0000C9452050C94C9030C947F040C94610395
:1001E0000C94EA060C944F030C9479030C94CE06FD
:1001F0000C945D0500000A0B02090C0D0E080703A4
:1002000004010000000000000000000000000000E9
:1002100000000000000000000000000000000000DE
:10022000121110000000000000000000000000009B
:100230000000000000000000000000002200250077
:1002400028002B002E0031003400020100000501BF
:1002500008010B0100002100240027002A002D00C6
:100260003000330001010000040107010A01050507
:100270000505070508080808020202020A0A08081C
:10028000040404040101010101010101030303034A
:1002900003030303040707070C0C0C0C0C0C0C0CD9
:1002A0000202020206060606060606060B0B0B0BEA
:1002B0000B0B0B0B0102102020080810204010200F
:1002C000408002010201080402010102040810201A
:1002D0004080804020100804020180040201804018
:1002E0002010080402010804020101020408102081
:1002F00040800102040810204080AE0811241FBE77
:10030000CFEFD1E2DEBFCDBF00E00CBF12E0A0E036
:10031000B2E0EAE8FDE100E00BBF02C007900D92F9
:10032000AC32B107D9F723E0ACE2B2E001C01D92D4
:10033000AA36B207E1F711E0CEE7D1E000E006C04F
:1003400021970109802FFE010E94B60ECD37D107FB
:1003500080E00807A9F70E94A6090C94C30E0C942C
:1003600000004F925F926F927F928F929F92AF9216
:10037000BF92CF92DF92EF92FF920F931F93CF9392
:10038000DF93EC01C888D988EA88FB888C859D8535
:10039000AE85BF85C81AD90AEA0AFB0A6C897D892D
:1003A0008E899F899B01AC010E94EE0D4B015C017F
:1003B0006C8D7D8D8E8D9F8D9B01AC010E941E0CDE
:1003C0009B01AC01C501B4010E948F0C0E94010D7C
:1003D000C114D104E104F10499F46230710581057E
:1003E00091050CF076C01CA21DA21EA21FA21C8AA1
:1003F0001D8A1E8A1F8A1CAA1DAA1EAA1FAAEDC03A
:100400000CA91DA92EA93FA91C141D041E041F041C
:10041000FCF410161106120613064CF46C157D053B
:100420008E059F054CF52A81211153C025C0011569
:1004300011052105310509F44CC06C157D058E05AB
:100440009F050CF046C08A81882309F442C036C05B
:100450001016110612061306ECF400271127980156
:100460000C191D092E093F096017710782079307B0
:100470001CF42A81222369F19B01AC01882799276A
:10048000DC01821B930BA40BB50B8CAB9DABAEAB0D
:10049000BFAB1FC00115110521053105D1F088241E
:1004A000992454018C189D08AE08BF086815790579
:1004B0008A059B0574F48A8181110BC030952095C3
:1004C000109501951F4F2F4F3F4F0CAB1DAB2EAB1F
:1004D0003FAB8CA89DA8AEA8BFA881149104A1042D
:1004E000B10489F488AD99ADAAADBBAD8CAF9DAF19
:1004F000AEAFBFAF81E01C141D041E041F040CF03E
:1005000080E08A833FC0CCACDDACEEACFFACA70191
:100510009601C701B6010E941E0C2B013C01C501CA
:10052000B4010E94390D20E030E040E850E40E9420
:10053000EE0D20E030E040E85FE30E941E0C9B01DE
:10054000AC01C301B2010E948F0C9B01AC01C70139
:10055000B6010E941D0C3B016C01FE01E05CFF4FE7
:10056000E080F180028113819701A8010E94E90DCA
:10057000181614F473018601C701D8018CAF9DAF22
:10058000AEAFBFAF3FEF831A930AA30AB30A8CAA98
:100590009DAAAEAABFAACCACDDACEEACFFACC70145
:1005A000B6010E94080D6CA37DA38EA39FA3A70193
:1005B000960160E074E284E799E40E948F0C6C8BF2
:1005C0007D8B8E8B9F8B2A81211107C0DC01CB0193
:1005D000B0588C8B9D8BAE8BBF8BDF91CF911F91D1
:1005E0000F91FF90EF90DF90CF90BF90AF909F90D2
:1005F0008F907F906F905F904F90089590E0FC01F6
:10060000EC54FD4F2491FC01E259FD4F8491882365
:1006100099F090E0880F991FFC01EC5AFD4FA591CD
:10062000B491FC01E65CFD4F859194918FB7F894ED
:10063000EC91E22BEC938FBF0895362F90E0FC01F4
:10064000EC50FE4F4491FC01EC54FD4F2491FC0111
:10065000E259FD4F9491992309F46CC0442309F4A5
:1006600055C050E0FA013197E231F10508F04EC073
:100670008827EE58FF4F8F4F0C94B60E8091800064
:100680008F7707C0809180008F7D03C080918000AC
:10069000877F809380003AC084B58F7702C084B58D
:1006A0008F7D84BD33C08091B0008F7703C080916F
:1006B000B0008F7D8093B00029C0809190008F772B
:1006C00007C0809190008F7D03C080919000877F4C
:1006D000809390001BC08091A0008F7707C080910D
:1006E000A0008F7D03C08091A000877F8093A00031
:1006F0000DC0809120018F7707C0809120018F7DF0
:1007000003C080912001877F80932001E92FF0E0D2
:10071000EE0FFF1FE65CFD4FA591B4919FB7F894D3
:10072000311104C08C912095282302C0EC912E2B0E
:100730002C939FBF0895CF92DF92EF92FF920F9379
:100740001F93CF93DF936C017A018B01C0E0D0E05F
:10075000CE15DF0581F0D8016D918D01D601ED91A7
:10076000FC910190F081E02DC6011995892B11F0C3
:100770002196EECF7E01C701DF91CF911F910F919E
:10078000FF90EF90DF90CF900895089580E090E083
:100790000895FC01538D448D252F30E0842F90E087
:1007A000821B930B541710F0CF960895019708956C
:1007B000FC01918D828D981761F0828DDF01A80F69
:1007C000B11D5D968C91928D9F5F9F73928F90E08B
:1007D00008958FEF9FEF0895FC01918D828D9817FA
:1007E00031F0828DE80FF11D858D90E008958FEF37
:1007F0009FEF0895FC01918D228D892F90E0805C00
:100800009F4F821B91098F739927089585E492E089
:100810000E94FA0321E0892B09F420E0822F089539
:10082000FC01848DDF01A80FB11DA35ABF4F2C918D
:10083000848D90E001968F739927848FA689B7895C
:100840002C93A089B1898C91837080648C93938D53
:10085000848D981306C00288F389E02D80818F7DF6
:1008600080830895EF92FF920F931F93CF93DF93AE
:10087000EC0181E0888F9B8D8C8D981305C0E889F1
:10088000F989808185FD26C0F62E0B8D10E00F5F63
:100890001F4F0F731127E02E8C8DE8120CC00FB67E
:1008A00007FCFACFE889F989808185FFF5CFCE0171
:1008B0000E941004F1CF8B8DFE01E80FF11DE35A69
:1008C000FF4FF0829FB7F8940B8FEA89FB898081F4
:1008D00080620AC09FB7F894EE89FF896083E88937
:1008E000F98980818370806480839FBF81E090E07C
:1008F000DF91CF911F910F91FF90EF900895CF93CB
:10090000DF93EC01888D8823C9F0EA89FB89808117
:1009100085FD05C0A889B9898C9186FD0FC00FB6E9
:1009200007FCF5CF808185FFF2CFA889B9898C912A
:1009300085FFEDCFCE010E941004E7CFDF91CF916C
:10094000089580E090E0892B21F00E940604811137
:1009500025C080E090E0892B41F080E090E0892B79
:1009600021F00E94000081111CC080E090E0892BE2
:1009700041F080E090E0892B21F00E94000081117D
:1009800013C080E090E0892BA1F080E090E0892BFB
:1009900081F00E94000081110AC008950E940000A9
:1009A000D8CF0E940000E1CF0E940000EACF0C9453
:1009B00000000895CF93DF93FC012381222329F1C6
:1009C000EC0184810E94FE028D810E94FE028B81D7
:1009D000843011F0883029F48E810E94FE028F81CC
:1009E00005C0833011F0863019F48E810E94FE021A
:1009F0008FA58F3F51F00E94FE026EA581E068270F
:100A00008FA5DF91CF910C941D03DF91CF910895B5
:100A1000CF93DF93FC0123812223A1F0EC0101900D
:100A2000F081E02D0480F581E02D60E019958FA51F
:100A30008F3F41F00E94FE026EA58FA5DF91CF91FE
:100A40000C941D03DF91CF910895CF93DF93DC01C8
:100A50004770552766277727FA013197CD91DC91AA
:100A60001197E730F10530F48827EC57FF4F8F4F8F
:100A70000C94B60EEC81FD8161E01BC0EC81FD8120
:100A800065E017C0EC81FD8164E013C0EC81FD815D
:100A900066E00FC0EC81FD8162E00BC0EC81FD815E
:100AA0006AE007C0EC81FD8168E003C0EC81FD8154
:100AB00069E0CD01DF91CF911994CF93DF93EC01E1
:100AC000CB01BA0126E030E040E050E00E94DC0BB0
:100AD000623071058105910559F18CF4611571053C
:100AE00081059105F1F06130710581059105C1F530
:100AF000E881F9810480F581E02D65E02DC0643046
:100B000071058105910511F1D4F0653071058105FC
:100B1000910531F5E881F9810480F581E02D66E0E9
:100B20001BC0E881F9810480F581E02D64E014C0E8
:100B3000E881F9810480F581E02D61E00DC0E88154
:100B4000F9810480F581E02D63E006C0E881F98138
:100B50000480F581E02D62E0CE01DF91CF91199400
:100B6000DF91CF9108954370552766277727DC01E1
:100B7000ED91FC910480F581E02D42305105610535
:100B8000710571F0433051056105710559F041302F
:100B900051056105710511F065E005C066E003C00F
:100BA0006AE001C069E01994CF93DF93EC01CB01B7
:100BB000BA0123E030E040E050E00E94DC0B6130FD
:100BC00071058105910581F06230710581059105FE
:100BD00091F0672B682B692BC1F4E881F9810480BF
:100BE000F581E02D64E00DC0E881F9810480F58194
:100BF000E02D61E006C0E881F9810480F581E02DF7
:100C000062E0CE01DF91CF911994DF91CF910895E9
:100C10004370552766277727DC01ED91FC9104800E
:100C2000F581E02D423051056105710571F04330C9
:100C300051056105710559F0413051056105710596
:100C400011F062E005C063E003C061E001C060E054
:100C50001994CF93DF93EC01E881F9810480F58149
:100C6000E02D8A81811102C060E001C062E0CE0106
:100C70001995E881F9810480F581E02D8A8181113F
:100C800002C061E001C063E0CE0119958CA59DA56D
:100C90008230910538F0880F991F880F991F0597AA
:100CA0000197F1F7E881F9810480F581E02D8A81CF
:100CB000811102C060E001C062E0CE01DF91CF91FE
:100CC0001994CF93DF93EC0120E030E0A9016C8907
:100CD0007D898E899F890E94E90D18161CF4E8A968
:100CE000F9A902C0EAA9FBA9DF91CF911994CF928B
:100CF000DF92EF92FF920F931F93CF93DF93EC015C
:100D00009B81943041F0983031F0933031F096303F
:100D100021F012E003C014E001C013E02496E12C9E
:100D2000F12CC62ED12C01E0C6010E2C02C09595E7
:100D300087950A94E2F76C8180FD602789910E9473
:100D40001D038FEFE81AF80AE11670F3DF91CF91D7
:100D50001F910F91FF90EF90DF90CF9008950F9328
:100D60001F93DC0113960C91139710E009301105C5
:100D7000D8F5F8018827E557FF4F8F4F0C94B60E32
:100D8000ED91FC9111970084F185E02D29C0ED9142
:100D9000FC9111970284F385E02D22C0ED91FC9126
:100DA00011970484F585E02D1BC0ED91FC911197FE
:100DB0000684F785E02D14C0ED91FC911197008811
:100DC000F189E02D0DC0ED91FC9111970288F38916
:100DD000E02D06C0ED91FC9111970488F589E02D76
:100DE000CD011F910F9119941F910F910895CF92EA
:100DF000DF92EF92FF92CF93DF93EC018CA19DA144
:100E0000AEA1BFA1892B8A2B8B2B09F455C03FB70C
:100E1000F8948091410290914202A0914302B091D6
:100E2000440226B5A89B05C02F3F19F00196A11DCD
:100E3000B11D3FBFCC24D82EE92EFA2EC20ED11CF4
:100E4000E11CF11C42E0CC0CDD1CEE1CFF1C4A95A1
:100E5000D1F788A599A5AAA5BBA5B701A601481BEE
:100E6000590B6A0B7B0B8CA19DA1AEA1BFA14817AA
:100E700059076A077B0700F12A818C859D85AE851D
:100E8000BF85222321F00196A11DB11D03C001974A
:100E9000A109B1098C879D87AE87BF874C855D8589
:100EA0006E857F85CE010E94AF06C8A6D9A6EAA6A8
:100EB000FBA6CE010E94B10120E030E0A9016C89BF
:100EC0007D898E899F890E948A0C811110C081E0E2
:100ED000C888D988EA88FB884C855D856E857F85C2
:100EE000C416D506E606F70619F480E001C081E0D5
:100EF000DF91CF91FF90EF90DF90CF9008950E9407
:100F0000BE0E4F925F926F927F928F929F92AF929E
:100F1000BF92CF92DF92EF92FF92CF93DF93EC01DB
:100F20006A017B0120E030E0A901C701B6010E94FF
:100F30008A0C87FF04C0F7FAF094F7F8F0948C8CD1
:100F40009D8CAE8CBF8CA7019601C501B4010E9497
:100F50008A0C882309F449C06CA97DA98EA99FA990
:100F60000E94390D2B013C01A7019601C501B40176
:100F70000E948F0C9B01AC01C301B2010E94EE0DD7
:100F80000E94010D6CAB7DAB8EAB9FABA7019601B0
:100F900060E070E080E090E40E948F0C0E94610E9F
:100FA00026E53EE04DE25FE30E94EE0D20E034E2F4
:100FB00044E759E40E94EE0D68AF79AF8AAF9BAF6A
:100FC000CC8EDD8EEE8EFF8ECE01DF91CF91FF9025
:100FD000EF90DF90CF90BF90AF909F908F907F90D9
:100FE0006F905F904F900C94B101DF91CF91FF9083
:100FF000EF90DF90CF90BF90AF909F908F907F90B9
:101000006F905F904F9008951F920F920FB60F92BE
:1010100011242F933F938F939F93AF93BF9380910E
:101020003D0290913E02A0913F02B091400230916A
:101030003C0223E0230F2D3720F40196A11DB11DA2
:1010400005C026E8230F0296A11DB11D20933C0286
:1010500080933D0290933E02A0933F02B0934002E2
:101060008091410290914202A0914302B0914402CA
:101070000196A11DB11D8093410290934202A0935D
:101080004302B0934402BF91AF919F918F913F91E2
:101090002F910F900FBE0F901F9018951F920F92D7
:1010A0000FB60F9211240BB60F922F933F934F93CD
:1010B0005F936F937F938F939F93AF93BF93EF93C0
:1010C000FF9385E492E00E941004FF91EF91BF919D
:1010D000AF919F918F917F916F915F914F913F91D0
:1010E0002F910F900BBE0F900FBE0F901F90189571
:1010F0001F920F920FB60F9211240BB60F922F93DF
:101100008F939F93EF93FF93E0915502F0915602D6
:101110008081E0915B02F0915C0282FD12C09081BF
:1011200080915E028F5F8F7320915F02821751F072
:10113000E0915E02F0E0EB5BFD4F958F80935E02E5
:1011400001C08081FF91EF919F918F912F910F901E
:101150000BBE0F900FBE0F901F9018958F929F920D
:10116000AF92BF92CF92DF92EF92FF920F931F93B5
:10117000CF93DF93E5E4F2E01382128288EE93E0EE
:10118000A0E0B0E084839583A683B78384E092E0F7
:101190009183808385EC90E09587848784EC90E050
:1011A0009787868780EC90E0918B808B81EC90E034
:1011B000938B828B82EC90E0958B848B86EC90E015
:1011C000978B868B118E128E138E148EE6E2F3E0CF
:1011D00006E112E0118300838824839483821486BD
:1011E000158616861786108A118A128A138A148A1F
:1011F000158A168A178AC12CD12C80E8E82E8FE335
:10120000F82EC08ED18EE28EF38E148E158E168E31
:10121000178EC0A2D1A2E2A2F3A214A215A216A216
:1012200017A2C1E0D0E0D5A7C4A799249A9497A6A5
:1012300010A611A612A613A686E3848387E38583EE
:1012400094E0A92EA68225E0B22EB78216A614AA93
:1012500015AA16AA17AA10AE11AE12AE13AE14AE8E
:1012600015AE16AE17AEC0926603D0926703E09239
:101270006803F09269031282108611861286138623
:10128000CF010E94DA04B701A60186E293E00E9432
:101290008107E2EEF2E011830083838214861586D3
:1012A00016861786108A118A128A138A148A158A5A
:1012B000168A178AC08ED18EE28EF38E148E158E0A
:1012C000168E178EC0A2D1A2E2A2F3A214A215A27A
:1012D00016A217A2D5A7C4A797A610A611A612A654
:1012E00013A68CE384838DE38583A682B78216A63A
:1012F00014AA15AA16AA17AA10AE11AE12AE13AEF2
:1013000014AE15AE16AE17AEC0922203D0922303D0
:10131000E0922403F0922503128210861186128631
:101320001386CF010E94DA04B701A60182EE92E093
:10133000DF91CF911F910F91FF90EF90DF90CF90B1
:10134000BF90AF909F908F900C948107789484B554
:10135000826084BD84B5816084BD85B5826085BDB1
:1013600085B5816085BD80916E00816080936E003F
:101370001092810080918100826080938100809131
:1013800081008160809381008091800081608093E2
:1013900080008091B10084608093B1008091B000A2
:1013A00081608093B0008091910082608093910071
:1013B0008091910081608093910080919000816084
:1013C000809390008091A10082608093A100809121
:1013D000A10081608093A1008091A0008160809332
:1013E000A0008091210182608093210180912101E0
:1013F0008160809321018091200181608093200190
:1014000080917A00846080937A0080917A00826073
:1014100080937A0080917A00816080937A00809135
:101420007A00806880937A001092C100E0915502A2
:10143000F091560282E08083E0915102F0915202D5
:101440001082E0915302F09154028FEC808310924D
:101450005D02E0915902F0915A0286E08083E091AA
:101460005702F0915802808180618083E091570299
:10147000F0915802808188608083E0915702F0915A
:101480005802808180688083E0915702F091580271
:1014900080818F7D808384EB9CE2A0E0B0E080932C
:1014A000380290933902A0933A02B0933B0286E24D
:1014B0000E94FE0260E086E20E941D0388E30E9413
:1014C000FE0260E088E30E941D0320E030E64AEE61
:1014D00056E460913E0370913F03809140039091E8
:1014E00041030E948A0C882309F453C080E090E6EF
:1014F000AAEEB6E480933E0390933F03A09340038B
:10150000B093410385E595E5A5E0B2E480936603D9
:1015100090936703A0936803B093690380915A0383
:1015200090915B03A0915C03B0915D0318161906BE
:101530001A061B0674F560913A0370913B03809183
:101540003C0390913D039B01AC010E94EE0D6B01A9
:101550007C01609142037091430380914403909118
:1015600045039B01AC010E941E0C9B01AC01C7010D
:10157000B6010E948F0C0E94010D60935A03709374
:101580005B0380935C0390935D0386E293E00E948B
:10159000B10140E050E06AEF73E486E293E00E941C
:1015A000810720E030E44CE956E46091FA02709142
:1015B000FB028091FC029091FD020E948A0C88231C
:1015C00009F453C080E090E4ACE9B6E48093FA02F9
:1015D0009093FB02A093FC02B093FD0280E090E0A8
:1015E000A8E4B2E48093220390932303A0932403FE
:1015F000B09325038091160390911703A0911803CF
:10160000B0911903181619061A061B0674F5609195
:10161000F6027091F7028091F8029091F9029B0115
:10162000AC010E94EE0D6B017C016091FE02709195
:10163000FF0280910003909101039B01AC010E9485
:101640001E0C9B01AC01C701B6010E948F0C0E94C9
:10165000010D609316037093170380931803909302
:10166000190382EE92E00E94B10140E050E06AEF7F
:1016700074E482EE92E00E9481078091360390919B
:101680003703A0913803B0913903803B9440A10502
:10169000B10581F080EB94E0A0E0B0E080933603E8
:1016A00090933703A0933803B093390386E293E015
:1016B0000E94B1018091F2029091F302A091F40294
:1016C000B091F50281159941A105B10581F080E045
:1016D00099E1A0E0B0E08093F2029093F302A0932E
:1016E000F402B093F50282EE92E00E94B101809183
:1016F000360390913703A0913803B091390340919C
:101700003203509133036091340370913503841791
:101710009507A607B707C1F444275527BA01481B08
:10172000590B6A0B7B0B84179507A607B70761F067
:101730004093360350933703609338037093390313
:1017400086E293E00E94B1018091F2029091F3024F
:10175000A091F402B091F5024091EE025091EF0297
:101760006091F0027091F10284179507A607B70700
:10177000C1F444275527BA01481B590B6A0B7B0B50
:10178000481759076A077B0761F04093F2025093AC
:10179000F3026093F4027093F50282EE92E00E94ED
:1017A000B10186E293E00E94F70682EE92E00E9489
:1017B000F7060E94A1049BCF052E97FB1EF4009410
:1017C0000E94F30B57FD07D00E94FB0B07FC03D0D0
:1017D0004EF40C94F30B50954095309521953F4F66
:1017E0004F4F5F4F089590958095709561957F4F0D
:1017F0008F4F9F4F0895A1E21A2EAA1BBB1BFD011C
:101800000DC0AA1FBB1FEE1FFF1FA217B307E407DF
:10181000F50720F0A21BB30BE40BF50B661F771F37
:10182000881F991F1A9469F7609570958095909517
:101830009B01AC01BD01CF0108955058BB27AA27D9
:101840000E94350C0C94AF0D0E94A10D38F00E943F
:10185000A80D20F039F49F3F19F426F40C949E0D46
:101860000EF4E095E7FB0C94980DE92F0E94C00D53
:1018700058F3BA17620773078407950720F079F4C5
:10188000A6F50C94E20D0EF4E0950B2EBA2FA02DC8
:101890000B01B90190010C01CA01A0011124FF271D
:1018A000591B99F0593F50F4503E68F11A16F04018
:1018B000A22F232F342F4427585FF3CF4695379517
:1018C0002795A795F0405395C9F77EF41F16BA0BDC
:1018D000620B730B840BBAF09150A1F0FF0FBB1F8A
:1018E000661F771F881FC2F70EC0BA0F621F731FD3
:1018F000841F48F4879577956795B795F7959E3F30
:1019000008F0B0CF9395880F08F09927EE0F9795C0
:10191000879508950E94740D08F481E008950E944F
:10192000A30C0C94AF0D0E94A80D58F00E94A10DBD
:1019300040F029F45F3F29F00C94980D51110C945C
:10194000E30D0C949E0D0E94C00D68F39923B1F332
:10195000552391F3951B550BBB27AA2762177307D5
:10196000840738F09F5F5F4F220F331F441FAA1F69
:10197000A9F335D00E2E3AF0E0E832D09150504025
:10198000E695001CCAF72BD0FE2F29D0660F771FD3
:10199000881FBB1F261737074807AB07B0E809F0B9
:1019A000BB0B802DBF01FF2793585F4F3AF09E3F3E
:1019B000510578F00C94980D0C94E30D5F3FE4F31F
:1019C000983ED4F3869577956795B795F7959F5F81
:1019D000C9F7880F911D9695879597F90895E1E0CD
:1019E000660F771F881FBB1F621773078407BA072C
:1019F00020F0621B730B840BBA0BEE1F88F7E09587
:101A000008950E94080D6894B1110C94E30D089597
:101A10000E94C80D88F09F5798F0B92F9927B751A9
:101A2000B0F0E1F0660F771F881F991F1AF0BA9582
:101A3000C9F714C0B13091F00E94E20DB1E00895F1
:101A40000C94E20D672F782F8827B85F39F0B93FE3
:101A5000CCF3869577956795B395D9F73EF4909535
:101A60008095709561957F4F8F4F9F4F0895E894B3
:101A700009C097FB3EF490958095709561957F4FD6
:101A80008F4F9F4F9923A9F0F92F96E9BB27939584
:101A9000F695879577956795B795F111F8CFFAF494
:101AA000BB0F11F460FF1BC06F5F7F4F8F4F9F4FC5
:101AB00016C0882311F096E911C0772321F09EE823
:101AC000872F762F05C0662371F096E8862F70E089
:101AD00060E02AF09A95660F771F881FDAF7880F63
:101AE0009695879597F90895990F0008550FAA0BB9
:101AF000E0E8FEEF16161706E807F907C0F0121621
:101B00001306E407F50798F0621B730B840B950B23
:101B100039F40A2661F0232B242B252B21F4089578
:101B20000A2609F4A140A6958FEF811D811D089515
:101B300097F99F6780E870E060E008959FEF80EC80
:101B4000089500240A941616170618060906089523
:101B500000240A9412161306140605060895092E89
:101B60000394000C11F4882352F0BB0F40F4BF2BF8
:101B700011F460FF04C06F5F7F4F8F4F9F4F089538
:101B800057FD9058440F551F59F05F3F71F047952E
:101B9000880F97FB991F61F09F3F79F08795089513
:101BA000121613061406551FF2CF4695F1DF08C032
:101BB000161617061806991FF1CF8695710561054F
:101BC00008940895E894BB2766277727CB0197F9F7
:101BD00008950E94740D08F48FEF08950E94010E7D
:101BE0000C94AF0D0E94A10D38F00E94A80D20F0BA
:101BF000952311F00C94980D0C949E0D11240C94C7
:101C0000E30D0E94C00D70F3959FC1F3950F50E056
:101C1000551F629FF001729FBB27F00DB11D639F9E
:101C2000AA27F00DB11DAA1F649F6627B00DA11D44
:101C3000661F829F2227B00DA11D621F739FB00DEA
:101C4000A11D621F839FA00D611D221F749F33275A
:101C5000A00D611D231F849F600D211D822F762FF3
:101C60006A2F11249F5750409AF0F1F088234AF0D0
:101C7000EE0FFF1FBB1F661F771F881F915050403C
:101C8000A9F79E3F510580F00C94980D0C94E30D3C
:101C90005F3FE4F3983ED4F3869577956795B795C3
:101CA000F795E7959F5FC1F7FE2B880F911D9695DD
:101CB000879597F9089519F416F40C949E0D0C94D9
:101CC000A10E0E94C80DB8F39923C9F3B6F39F572C
:101CD000550B87FF0E94AF0E0024A0E640EA90015A
:101CE00080585695979528F4805C660F771F881F5B
:101CF00020F026173707480730F4621B730B840B5C
:101D0000202931294A2BA69517940794202531259F
:101D10004A2758F7660F771F881F20F026173707C6
:101D2000480730F4620B730B840B200D311D411DED
:101D3000A09581F7B901842F9158880F96958795C2
:101D400008959F3F31F0915020F4879577956795DE
:101D5000B795880F911D9695879597F9089591509D
:101D60005040660F771F881FD2F70895EE0FFF1FB0
:101D7000881F8BBF0790F691E02D199481E090E0C9
:0A1D8000F8940C94C30EF894FFCF02
:101D8A000000000032049B03C9037F04FA03D8034E
:101D9A00EC03000000000805DA047706AF066106C6
:0C1DAA0029060806D405B3055D052505D3
:00000001FF
